:0200000480007A
:1000000017710100130181BB17750100130545A18C
:10001000B73200009382028033015100930280FFC7
:100020003371510023202500EF008011EF004005BF
:10003000B700001013014000238020006F00000073
:10004000B7050080130101FF1305B00093858528D3
:1000500023261100EF0040488320C1001305B000A3
:10006000130101016F00C049930700006388070076
:1000700037450080130585CC6FD05056678000004F
:10008000976101009381017D1385C11F138681361D
:100090003306A64093050000EF00405817E5000026
:1000A000130505D46308050017450000130505C2B4
:1000B000EFD0D052EF00C04C032501009305410062
:1000C00013060000EF0040076F00804803C741227D
:1000D00063120704130101FF232481001384070026
:1000E0002326110093070000638A0700376501800B
:1000F0001305050097000000E700000093071000BB
:100100008320C1002382F122032481001301010115
:10011000678000006780000093070000638C070081
:1001200037650180938581221305050017030000C0
:100130006700000067800000130540016780000031
:100140009702000093820201739052306780000092
:10015000130101F9232011002322510023246100FF
:100160002326710023288100232A9100232CA1003B
:10017000232EB1002320C1022322D1022324E10235
:100180002326F10223280103232A1103232C210310
:10019000232E310323204105232251052324610509
:1001A0002326710523288105232A9105232CA105E7
:1001B000232EB1052320C1072322D1072324E107E1
:1001C0002326F107F322203413D3F2016310030A2C
:1001D0001303B000638062086F00400A83200100AF
:1001E00083224100032381008323C10003240101F2
:1001F00083244101032581018325C10103260102D6
:1002000083264102032781028327C10203280103B9
:1002100083284103032981038329C103032A01049D
:10022000832A4104032B8104832BC104032C010581
:10023000832C4105032D8105832DC105032E010665
:10024000832E4106032F8106832FC1061301010768
:1002500073002030EF00000A232CA100F322103499
:1002600093824200739012346FF05FF7139512007F
:1002700013551500EF00C02A6FF05FF613850200DA
:10028000EF00802B6FF0DFDA03A6412003A7812067
:100290009307160093F7F70F638EE700374700F0D8
:1002A00083450700138701243307C7002300B700E5
:1002B00023A2F1206780000003C70120631A070012
:1002C00083A6C11C23AED11E130710002380E1209A
:1002D000630A050083A7C11C636AF50023AEA11E53
:1002E0006780000003A5C11F678000001305F0FFB1
:1002F00067800000930700059306050063C8170395
:100300009307800363DA1719938778FC1308700149
:100310006364F81837580180939727001308C8AC16
:10032000B387070183A70700678007009307600D65
:100330006394F81603C70120630E0700638C06164A
:1003400083A7C11C63ECF61623AED11E13850600ED
:100350006780000003A6C11C23AEC11E1307100056
:100360002380E1206FF09FFD9307100063EEA7004C
:10037000130500006780000093071000130530FE8E
:1003800063E4D70067800000130570FF67800000FA
:1003900093071000E31AF5FEE30C06FCB306B60063
:1003A0003707001083C70500938515002300F70069
:1003B000E39AB6FE1305060067800000E31605FC0D
:1003C00083A7812083A84120638E170FE30206FADA
:1003D00013070000138501246F0080006308E60AFC
:1003E000B306F50003C8060093871700B386E5003F
:1003F0002380060193F7F70F13071700E390F8FE29
:1004000023A4112113050700678000009307100043
:10041000E31CF5F6B727000013080000930800005E
:100420009387071823AAA50023A0050123A215017D
:1004300023A4050123A6150123A8F50023AC05007C
:1004400023AE050023A0050323A2150323A805035B
:1004500023AA150323AC050223A0050523A2150535
:1004600023A4050523A6150523A8050423AC05052B
:1004700023AE150523A0050623A4050723A615070B
:1004800023A80506130500006780000023A4F120BF
:10049000130506006780000037550180130101FF36
:1004A00093850800130505AB23261100EF00C02833
:1004B000EFF01FB803A5C11F678000001305F0FF10
:1004C00067800000130550FF6780000037550180EA
:1004D0001305C5B26F00C03793172500376501803B
:1004E000130505053305F5002320B50067800000DE
:1004F0007360043067800000737004306780000010
:1005000093071000B397A70073A0473067800000DF
:1005100093071000B397A70073B0473067800000BF
:100520009317250037650180130505053305F50090
:1005300083270500678007001306050037550180F3
:10054000130585B3F3263034F32510346F00C01E35
:10055000130101FF930500002324810023261100CD
:1005600013040500EF20507703A5811E8327C503E0
:1005700063840700E780070013050400EFF0504F85
:10058000130101FF2324810023202101376401800E
:100590003769018093070404130909043309F940FA
:1005A00023261100232291001359294063000902D8
:1005B00013040404930400008327040093841400AC
:1005C00013044400E7800700E31899FE37640180B4
:1005D00037690180930704041309C9043309F940FA
:1005E0001359294063000902130404049304000012
:1005F000832704009384140013044400E780070059
:10060000E31899FE8320C100032481008324410064
:100610000329010013010101678000001303F000AA
:1006200013070500637EC3029377F7006390070A00
:1006300063920508937606FF1376F600B386E6000C
:100640002320B7002322B7002324B7002326B700B6
:1006500013070701E366D7FE6314060067800000F6
:10066000B306C3409396260097020000B386560057
:100670006780C6002307B700A306B7002306B700AC
:10068000A305B7002305B700A304B7002304B700F0
:10069000A303B7002303B700A302B7002302B700E8
:1006A000A301B7002301B700A300B7002300B700E0
:1006B0006780000093F5F50F93968500B3E5D500AC
:1006C00093960501B3E5D5006FF0DFF6939627000A
:1006D00097020000B386560093820000E78006FA76
:1006E00093800200938707FF3307F7403306F60035
:1006F000E378C3F66FF0DFF3130101FC2324C1029A
:100700002326D1022328E102232AF102232C01030C
:10071000232E11031386050083258500930681028D
:10072000232E11002326D100EF00001C8320C101DD
:10073000130101046780000003A3011F130101FCE2
:100740002324C1022326D1022322B1022328E1025D
:10075000232AF102232C0103232E11038325830076
:10076000930641021306050013050300232E110012
:100770002326D100EF0040178320C101130101049B
:1007800067800000130101FC232C81021304050083
:1007900013850500232A9102232E1102938405005C
:1007A000EF00C00BB7570180938787AC2324F10279
:1007B000930710002326F102032784039307010205
:1007C00093061500232AF1009307200023209102AD
:1007D0002322A102232ED100232CF10083258400A3
:1007E000630E07048397C50013972701634207022E
:1007F00003A74506B7260000B3E7D700B7E6FFFF1B
:100800009386F6FF3377D7002396F50023A2E506FB
:100810001306410113050400EF30D0138320C103F8
:10082000032481033335A0003305A0408324410312
:100830001365A5001301010467800000130504007F
:100840002326B100EF3040448325C1006FF09FF9AB
:100850009305050003A5011F6FF0DFF293773500C4
:1008600013070500639C0704B7867F7F9386F6F71E
:100870009305F0FF0326070013074700B377D60060
:10088000B387D700B3E7C700B3E7D700E384B7FE69
:100890008346C7FF0346D7FF8347E7FF3307A740D9
:1008A00063800604630A06023335F0003305E50071
:1008B0001305E5FF67800000E38806FA8347070019
:1008C0001307170093763700E39807FE3307A74016
:1008D0001305F7FF678000001305D7FF678000004E
:1008E0001305C7FF67800000130101E12326111ED5
:1008F0002320211F2324811D2320A11D138C0500EB
:1009000013090600232AD1002324811E2322911ECD
:10091000232E311D232C411D232A511D2328611D07
:100920002326711D2322911D232EB11B130D0500BB
:10093000EF60902083270500138507002328F1022C
:10094000EFF0DFF12326A1022328010E232A010E56
:10095000232C010E232E010E63060D0083278D0329
:10096000E38C070E8316CC00372600009397060110
:1009700093D70701B3F5C7006398050283254C069A
:10098000B3E7C60093970701B7E6FFFF93D7074188
:100990009386F6FFB3F6D5002316FC009397070164
:1009A0002322DC0693D7070193F687006386062E81
:1009B00083260C016382062E93F7A7019306A000FD
:1009C000638ED72E9307C1102322F10E9388070060
:1009D000B7570180938747BA232CF100B75701809E
:1009E000938707D2130B09002324F10083470B00E0
:1009F0002326010E2324010E23200102232A0102B3
:100A0000232C0102232E01022324010423260104A6
:100A1000232601006384072213040B0013075002EE
:100A20006388E7308347140013041400E39A07FE39
:100A3000B3046441630464210327C10E8327810E3C
:100A400023A06801330797009387170023A298001B
:100A50002326E10E2324F10E1307700093888800EB
:100A60006340F72E0327C100834704003307970034
:100A70002326E1006384071C83441400A303010CB4
:100A800013041400930DF0FF93090000130A0000F3
:100A90001309A005930A9000930BA002938C080001
:100AA00013041400938704FE6364F904032781018F
:100AB00093972700B387E70083A7070067800700A5
:100AC00093090000938604FD834404009397290052
:100AD000B387370193971700B389F600938604FD17
:100AE00013041400E3F2DAFE938704FEE370F9FCCA
:100AF00093880C006384041423069114A303010C4F
:100B0000930A1000930C1000130BC114232801004A
:100B1000930D00002324010223220102232E010051
:100B2000937B2A0063840B00938A2A0013794A0876
:100B30008327C10E63160900B3865941E34AD06288
:100B40000347710C630A07020327810E9306710C99
:100B500023A0D800938717009306100013071700EF
:100B600023A2D8002326F10E2324E10E9306700061
:100B70009388880063CCE64C638A0B020327810EBE
:100B80009306810C23A0D8009387270093062000AA
:100B90001307170023A2D8002326F10E2324E10E09
:100BA0009306700093888800E3CCE66A1307000878
:100BB000E300E942B38D9D41E34CB04D13770A1039
:100BC000E31A072C0327810EB387970123A068013E
:100BD0001307170023A298012326F10E2324E10E08
:100BE0009306700063CEE65893888800137A4A0013
:100BF00063060A00B38459416344905A63D459018F
:100C000093890A000327C100330737012326E10037
:100C1000E39A0752832701012324010E638807000A
:100C20008325010113050D00EF30C0229308C11088
:100C3000130B040083470B00E39007DE8327C10EEC
:100C4000638407006F10102C8357CC0093F70704C0
:100C5000638407006F2080238320C11E0324811E2C
:100C60000325C1008324411E0329011E8329C11DC0
:100C7000032A811D832A411D032B011D832BC11CC7
:100C8000032C811C832C411C032D011C832DC11BB3
:100C90001301011F6780000093050C0013050D0070
:100CA000EF20006D630405006F20401E8357CC00C9
:100CB0009306A00093F7A701E396D7D08317EC0023
:100CC000E3C207D0832641011306090093050C00F7
:100CD00013050D00EF20C05D2326A1006FF0DFF7A4
:100CE00013050D00EF60406583274500138507005D
:100CF0002326F104EFF09FB69307050013050D00BE
:100D0000938407002324F104EF60006383278500A8
:100D1000232EF102638404006F10C0058344040095
:100D20006FF01FD883440400136A0A026FF05FD784
:100D3000B3046441E31264D1834704006FF09FD38E
:100D40001306410E93050C0013050D00EFB0904300
:100D5000E31C05EE9308C1106FF0DFD093778A0093
:100D600093880C00638407006F10C005832741013E
:100D70001305010B232891019387770093F787FFD1
:100D800083A5070003A6470093878700232AF10065
:100D9000EF3081778327010B832801012328F10E8F
:100DA0008327410B232AF10E8327810B232CF10E7D
:100DB0008327C10B232EF10E1305010F23281101E8
:100DC000EF60804F2326A10C9307200083280101A8
:100DD0006314F5006F104042930710006314F50090
:100DE0006F10805C930710066394F4006F20000C72
:100DF000930710046394F4006F10901413F7F4FD3C
:100E00009307F0FF2324E1026394FD006F2000208C
:100E1000930770046314F7006F20401E832BC10FEB
:100E200023284105032E010F832E410F032F810F2D
:100E300093670A1063D40B006F105056232C0104E3
:100E4000138A070023280100032781029307600407
:100E50006314F7006F10D058930750042320110536
:100E60006314F7006F208012930A010B9307010DA2
:100E70001307C10C1308C10D93860D001306200043
:100E800093850A0013050D002328C10B2322C103FB
:100E9000232AD10B2320D103232CE10B232EE101A4
:100EA000232E710BEF504018032781029307700423
:100EB000032FC101832E0102032E41028328010466
:100EC000130B05006304F7006F20803B83270105A7
:100ED00093F71700638407006F2080118326C10DEC
:100EE000B38766412320F1020327C10C93077004E6
:100EF000232EE100032781026314F7006F10D04016
:100F000003278102930760046314F7006F10106FCA
:100F10008327C10183258102130610049387F7FFFD
:100F20002326F10C13F7F40F930600006398C50015
:100F30001307F7001377F70F93061000230AE10C4D
:100F40001307B00263DA07000327C10193071000FB
:100F5000B387E7401307D002A30AE10C1307900000
:100F60006344F7006F2040141305310E930505000C
:100F70009306A000130E300633E7D7021386050050
:100F8000138807009385F5FF13070703A30FE6FEF9
:100F9000B3C7D702E3420EFF9387070393F6F70F19
:100FA000A38FD5FE9307E6FF63E4A7006F20802C94
:100FB0001307610D6F00800083C607002300D70070
:100FC0009387170013071700E398A7FE9307510EA6
:100FD0001307610DB387C740B307F7001307410D2F
:100FE000B387E740232CF102832681030327010204
:100FF00093071000B38CE60063C4E7006F20801FE6
:101000008327C102B38CFC008327010593CAFCFF30
:1010100093DAFA4113FAF7BF136A0A10B3FA5C01C4
:101020002324010223220102232E010083278105AC
:10103000639407006F10502F9307D002A303F10CA5
:10104000930D0000938A1A006FF09FAD1306410EB6
:1010500093050C0013050D00EFB0D012E31E050E32
:101060008327C10E9308C1106FF01FB10327810EB3
:10107000938C1700832701029306100023A06801B8
:101080009304170013898800E3DCF63693071000F9
:1010900023A2F8002326910F2324910E93077000BA
:1010A000E3C697748327C1020327010393841400C6
:1010B000B38CFC002322F9002320E9002326910FA2
:1010C0002324910E9307700013098900E3C29774DB
:1010D0008327010F938614009305010A2328F10A40
:1010E0008327410F1305010B232ED100232AF10A78
:1010F0008327810F2320010A2322010A232CF10ACE
:101100008327C10F2324010A2326010A232EF10A73
:10111000EF0051128326C101832701029308890041
:1011200013870600938DF7FFE300053013081B00BB
:10113000B38CBC01232009012322B9012326910F7E
:101140002324D10E93077000E3C4D75093070901FD
:10115000138724001389080093880700032681035E
:101160009306410D2320D900B30796012322C9001D
:101170002326F10E2324E10E93067000E3D8E6A6A1
:101180001306410E93050C0013050D00EFB0807F90
:101190006314057C8327C10E9308C1106FF01FA54F
:1011A000930600010327810E63C496006F10D04E92
:1011B000B7560180938E06D113090001130A7000FF
:1011C000138B0E006F00C000938404FF63569904D4
:1011D000938707011307170023A0680123A22801A2
:1011E0002326F10E2324E10E93888800E35EEAFCB7
:1011F0001306410E93050C0013050D00EFB0807827
:10120000631C0574938404FF8327C10E0327810E9A
:101210009308C110E34E99FA930E0B00B387970021
:101220001307170023A0D80123A298002326F10E4C
:101230002324E10E93067000E3D2E69C1306410ED0
:1012400093050C0013050D00EFB0C0736316057015
:101250008327C10E6FF09F9A13050D00EF20D02257
:101260006FF04FF00327410193880C00A303010C9A
:101270008327070013074700232AE1002306F11400
:10128000930A1000930C1000130BC1146FF01F8809
:1012900083274101A303010C93880C0003AB0700D3
:1012A00013894700E3000B4A9307F0FF6394FD00A6
:1012B0006F10800313860D009305000013050B00CB
:1012C000232A9101EF60D03E2328A1008328410109
:1012D000631405006F10D02883270101232A210100
:1012E00023280100B38C67418347710C93CAFCFF2C
:1012F00093DAFA412324010223220102232E010062
:10130000B3FA5C01930D0000E38C0780938A1A0006
:101310006FF01F818344040093078006E38CF44040
:10132000136A0A046FF0CFF78326410193770A020C
:1013300093880C0003A7060093864600232AD10059
:10134000E39C072493770A01E398077293770A04D2
:10135000638407006F10C033137A0A20E30E0A700B
:101360008327C100130B04002300F7006FF09F8C4C
:10137000834404009307C006E38CF436136A0A0121
:101380006FF00FF203274101B787FFFF93C7078371
:101390002314F10C9307470093880C00232AF100D3
:1013A000832C0700B7570180938707B7232AF102E0
:1013B00013090000936B2A00930720009304800711
:1013C000A303010C9306F0FF6382DD20B3E62C013A
:1013D00013FAFBF7639A061E63900D2663980710B5
:1013E00093FC1B00130B011BE39E0C168347710C2F
:1013F000938A0D0063D49D01938A0C002328010079
:101400002324010223220102232E0100E39007F08E
:101410006FF00FF193880C00136A0A0193770A02A8
:10142000E38E070683274101138B7700137B8BFF25
:10143000832C0B0003294B0093078B00232AF10018
:10144000937BFABF930700006FF09FF793880C001F
:10145000936B0A0193F70B02E382070C8327410188
:10146000138B7700137B8BFF93078B00232AF100EC
:10147000832C0B0003294B00930710006FF05FF4DF
:1014800083440400136A0A086FF08FE18344040068
:10149000136A8A006FF0CFE093880C00136A0A0188
:1014A00093770A02E382070283274101138B7700B7
:1014B000137B8BFF83274B00832C0B0013078B00C0
:1014C000232AE10013890700E3C807029307F0FF0E
:1014D000930B0A006384FD02B3E72C01937BFAF7B8
:1014E000639E070063920D02138A0B00930D0000A8
:1014F000930C0000130B011B6FF05FEFE31C09322C
:1015000093079000E3E89733938C0C03A307911B98
:10151000138A0B00930C1000130BF11A6FF01FEDE0
:10152000832741018344040083A907009387470070
:10153000232AF10063D609D6B3093041136A4A0061
:101540006FF00FD683440400136A1A006FF04FD572
:101550008347710C83440400639407D4930700020B
:10156000A303F10C6FF0CFD383440400136A4A0045
:101570006FF00FD39307B00283440400A303F10C70
:101580006FF00FD2834404001307140063947401B6
:101590006F10504B938604FD13040700930D000059
:1015A00063E2DAD08344040093972D00B387B70138
:1015B00093971700B38DD700938604FD130414008E
:1015C000E3F2DAFE6FF00FCE930B0A0093061000E1
:1015D000E386D7F293062000638CD706130B011B1A
:1015E0001317D90193F77C0093DC3C009387070322
:1015F000B36C970113593900A30FFBFE33E72C019D
:1016000013060B00130BFBFFE31C07FC93F61B00F8
:10161000638A0606930600036386D7061306E6FF71
:101620009307011BA30FDBFEB38CC740138A0B008B
:10163000130B06006FF09FDB130710006394E700A5
:101640006F10500613072000930B0A00E398E7F889
:1016500083264103130B011B93F7FC00B387F600AD
:1016600003C7070093DC4C009317C901B3EC970143
:1016700013594900A30FEBFEB3E72C01130BFBFF3B
:10168000E39C07FC9307011BB38C6741138A0B0093
:101690006FF0DFD513075006E35A979C0327010F1D
:1016A0009305010A1305010B2328E10A0327410FC3
:1016B000232211052320F104232AE10A0327810FA5
:1016C0002320010A2322010A232CE10A0327C10F48
:1016D0002324010A2326010A232EE10AEF00813583
:1016E0008327010483284104631C05380327810EE6
:1016F000B7560180938606BA23A0D80093871700B7
:10170000930610001307170023A2D8002326F10E1A
:101710002324E10E9306700093888800E3C8E6282E
:101720000327C10C832601026352D76203270103FA
:101730008326C1029388880023ACE8FE0327810E2C
:10174000B387D70023AED8FE130717002326F10E68
:101750002324E10E9306700063C4E67A0327010296
:101760009304F7FF635490C8930600010327810E8A
:10177000E3DE962413090001930C70006F00C00093
:10178000938404FFE35499248326810093870701FF
:101790001307170023A0D80023A228012326F10E47
:1017A0002324E10E93888800E3DCECFC1306410E51
:1017B00093050C0013050D00EFB0C01C631E051847
:1017C0008327C10E0327810E9308C1106FF05FFBC2
:1017D00033895941635020BF130600010327810E4E
:1017E00063542607130E0001930B70006F00C000B6
:1017F000130909FF635A2E05832681009387070189
:101800001307170023A0D80023A2C8012326F10E36
:101810002324E10E93888800E3DCEBFC1306410EE1
:1018200093050C0013050D00EFB0C01563160512EB
:10183000130E0001130909FF8327C10E0327810E30
:101840009308C110E34A2EFB83268100B38727014A
:101850001307170023A0D80023A228012326F10E86
:101860002324E10E930670009388880063D4E6B4C5
:101870001306410E93050C0013050D00EFB0801008
:10188000631C050C8327C10E9308C1106FF08FB243
:10189000130600010327810E6352B607930B000164
:1018A000130970006F00C000938D0DFF63D8BB0556
:1018B00083268100938707011307170023A0D80010
:1018C00023A278012326F10E2324E10E93888800B9
:1018D000E35CE9FC1306410E93050C0013050D00B3
:1018E000EFB0400A631A0506938D0DFF8327C10EE2
:1018F0000327810E9308C110E3CCBBFB8326810034
:10190000B387B7011307170023A0D80023A2B8019B
:101910002326F10E2324E10E93067000938888009D
:1019200063DEE6A81306410E93050C0013050D00B7
:10193000EFB04005631205028327C10E9308C11062
:101940006FF0CFA71306410E93050C0013050D0091
:10195000EFB04003630005AC832B010163860BAE3F
:1019600093850B0013050D00EF20C04E6FF0CFAD37
:10197000130600010327810E6344D6006F10803DDB
:1019800037560180930E06D123208104232291042F
:1019900013040D0093040C00130E00019302700059
:1019A000138C0600138D0E006F00C000130C0CFF8B
:1019B000635A8E05938707011307170023A0A80118
:1019C00023A2C8012326F10E2324E10E9388880068
:1019D000E3DEE2FC1306410E9385040013050400C8
:1019E000EFA0507A631E0578130E0001130C0CFF54
:1019F0008327C10E0327810E9308C1109302700044
:101A0000E34A8EFB93060C00930E0D00138C04002A
:101A1000130D04008324410403240104B387D70079
:101A20001307170023A2D80023A0D8012326F10E04
:101A30002324E10E930670009388880063D2E69019
:101A40001306410E93050C0013050D00EFA09073D3
:101A5000E31405F08327C10E9308C1106FF04F8E79
:101A60001306410E93050C0013050D00EFA09071B5
:101A7000E31405EE8327C10E9308C1106FF00F9396
:101A80000326C10C635EC0660327C10183260102E1
:101A90009304070063C4E638635690020327810E5F
:101AA000B387970023A068011307170023A29800AB
:101AB0002326F10E2324E10E9306700093888800FC
:101AC000E3C4E63813C7F4FF1357F741B3F4E40057
:101AD0000327C101B3049740634690488326C101A0
:101AE00013770A40B30DDB00E31407128324C10C03
:101AF0000327010263C6E40013771A00E30A0736DE
:101B0000032701038326C1021306700023A0E80007
:101B10000327810EB387D70023A2D800130717002D
:101B20002326F10E2324E10E938888006354E600F7
:101B30006F10C01F832601023307DB00B384964079
:101B40003307B74113890400635497001309070052
:101B5000635820030327810EB387270123A0B80110
:101B60001307170023A228012326F10E2324E10ED8
:101B7000930670009388880063D4E6006F100021FC
:101B80001347F9FF1357F7413377E900B384E44073
:101B9000634490006FF08F85930600010327810E48
:101BA00063D6966213090001930C70006F00C000A9
:101BB000938404FF635C9960832681009387070107
:101BC0001307170023A0D80023A228012326F10E13
:101BD0002324E10E93888800E3DCECFC1306410E1D
:101BE00093050C0013050D00EFA0D059E31605D6A0
:101BF0008327C10E0327810E9308C1106FF05FFB8E
:101C000093771A00639407C823A2D8002326910F64
:101C10002324910E9307700063CC972213072700AB
:101C2000938808016FF08FD3635AB0D31306000175
:101C30006344B6016F10806013070001130B70003E
:101C4000938406006F000001938D0DFF635EB71D46
:101C50009384140083278100938C0C012322E900D4
:101C60002320F9002326910F2324910E13098900C4
:101C7000E35C9BFC1306410E93050C0013050D005D
:101C8000EFA05050E31A05CC832CC10E8324810EA3
:101C90001309C110130700016FF01FFB83264101D8
:101CA00093770A01138746006398071493770A0411
:101CB0006380076A8327410113090000232AE1009A
:101CC00083DC07006FF0CFF78326410193770A0189
:101CD00013874600639E070C93770A04638807689E
:101CE00083274101232AE100839C070013D9FC418B
:101CF0009307090063DC07FCB337900133092041E7
:101D00003309F9409307D002A303F10CB30C9041BF
:101D1000930B0A00930710006FF0CFEA03274101ED
:101D200093F70B01930647006390070E93F70B049C
:101D3000638007608327410113090000232AD10033
:101D400083DC0700930710006FF08FE713771A000A
:101D5000631407006FE09FE96FF05F9D93880C00AC
:101D60006FF00FF493070003A307F11A130BF11A96
:101D70006FF0CFE78327C103834404006394070017
:101D80006FE01FD283C70700639407006FE05FD145
:101D9000136A0A406FE0DFD08326C100130B0400F2
:101DA00093D7F6412320D7002322F7006FE09FE866
:101DB00083AC0600232AE10013D9FC4193070900F4
:101DC0006FF08FF0032741018327070013074700B7
:101DD000232AE10003A6070083A6470003A7870084
:101DE00083A7C7002328C10E232AD10E232CE10E7E
:101DF000232EF10E6FE05FFC83AC06001309000098
:101E0000232AE1006FF0CFE3832C070013090000C1
:101E1000232AD100930710006FF08FDA9384060015
:101E2000E34E90C66FF01FCA138714009306890013
:101E300083278100B38CBC012322B9012320F90040
:101E40002326910F2324E10E9307700063DEE77AC7
:101E50001306410E93050C0013050D00EFA0903200
:101E6000E31C05AE0327810E832CC10E930841119C
:101E7000130717001309C1106FF04FAE93880C00C1
:101E8000930B0A006FF00FDDB7570180938707B7F8
:101E900093880C00232AF10293770A0263880712C1
:101EA00083274101138B7700137B8BFF832C0B005F
:101EB00003294B0093078B00232AF10093771A0024
:101EC000638E0700B3E72C01638A070093070003C2
:101ED0002304F10CA304910C136A2A00937BFABF2C
:101EE000930720006FF0CFCD93880C006FF00FD3D5
:101EF00083441400136A0A02130414006FE05FBAEB
:101F00001306410E93050C0013050D00EFA090275A
:101F1000E31405A48327C10E9308C1106FF01F843A
:101F2000B7570180938747B893880C00232AF102A2
:101F30006FF09FF683441400136A0A201304140000
:101F40006FE01FB693076000938C0D0063EEB771CE
:101F500037580180938A0C00232A2101130B88B97A
:101F60006FE0DFBA930600010327810E63DE96441B
:101F7000930C0001930D70006F00C000938404FF68
:101F800063D49C44832681009387070113071700BD
:101F900023A0D80023A298012326F10E2324E10ECA
:101FA00093888800E3DCEDFC1306410E93050C00DA
:101FB00013050D00EFA0101DE310059A8327C10E35
:101FC0000327810E9308C1106FF05FFB8326410148
:101FD00093770A0113874600638C071A83AC0600C7
:101FE00013090000232AE1006FF05FED1306410E94
:101FF00093050C0013050D00EFA0D018E31E059407
:10200000832CC10E8324810E1309C1106FF08F89B8
:102010001306410E93050C0013050D00EFA090165A
:10202000E31C0592832CC10E8324810E1309C11079
:102030006FF00F8A130B011B930700002328810008
:10204000232E910013040B0023223103130B0C00E9
:1020500093840C0093090900832CC10313FA0B40ED
:10206000930AF00F138C0800138907006F004002D9
:102070001306A00093060000138504009385090051
:10208000EFE0404D638C09569304050093890500E9
:102090001306A00093060000138504009385090031
:1020A000EFE0900E13050503A30FA4FE130919001A
:1020B0001304F4FFE30E0AFA83C60C00E31AD9FAFC
:1020C000E30859FB639C094E9307900063E8974E21
:1020D00093080C009307011B130C0B00130B040057
:1020E000232E91038324C10183294102032401018A
:1020F00023202103B38C6741138A0B006FF00FAFCD
:102100000327810EB7560180938606BA23A0D80014
:1021100093871700930610001307170023A2D80017
:102120002326F10E2324E10E930670009388880085
:1021300063C4E64E631A06148326010213771A005D
:102140003367D700631407006FE05FAA032701031A
:102150008326C10223A0E8000327810EB387F6007F
:1021600023A2D800130717002326F10E2324E10E23
:102170009306700063C2E65A938888006F000014CB
:10218000832B0101130D0400138C04006FF00FFD6D
:1021900093770A04638C071E83274101130900000B
:1021A000232AE10083DC07006FF05FD11306410EA4
:1021B00093050C0013050D00EFA0C07C631E05F80D
:1021C0008327C10E9308C1106FF08FD5832681003D
:1021D000B387970023A2980023A0D8001307170005
:1021E0002326F10E2324E10E9306700063C4E6005B
:1021F0006FE09F9F6FE0DFF88327010F9305010ACF
:102200001305010B2328F10A8327410F2320010A1C
:102210002322010A232AF10A8327810F2324010A9A
:102220002326010A232CF10A8327C10F232EF10A4A
:10223000EFF0502183280101E344052E8347710C00
:1022400013077004635C973E37580180130B48B640
:10225000232801002324010223220102232E01004E
:10226000137AFAF7930A3000930C3000930D0000B4
:10227000639E07886FE0DF8A8327C100130B040089
:102280002320F7006FE01F9B032701038326C10271
:102290009388880023ACE8FE0327810EB387F600FD
:1022A00023AED8FE130717002326F10E2324E10ED8
:1022B0009306700063C2E646E344063683260102B5
:1022C0001307170023A06801B387F60023A2D800E4
:1022D0002326F10E2324E10E9306700063C4E6006A
:1022E0006FE09F906FE0DFE913050B00232091055D
:1022F000EFE0CFD68347710C934AF5FF93DAFA41AA
:10230000232A210123280100232401022322010280
:10231000232E010083280104930C0500B37A550194
:10232000930D0000638407006FE05FFE6FE04FFFD6
:1023300093F70B206386073A8327410113090000B6
:10234000232AD10083CC0700930710006FF04F873A
:1023500093770A20638C0736832741011309000015
:10236000232AE10083CC07006FF08F8D93770A203A
:102370006382073483274101232AE100838C07000D
:1023800013D9FC41930709006FF00F9493770A204B
:10239000638807308327410113090000232AE100E5
:1023A00083CC07006FF09FB18327C10F63C607344A
:1023B0008347710C13077004E35C97223758018040
:1023C000130BC8B66FF0DFE883268100B387970050
:1023D0001307170023A0D80023A298002326F10E8C
:1023E0002324E10E930670009388880063D8E6EEFC
:1023F0001306410E93050C0013050D00EFA0805845
:10240000631C05D48327C10E9308C1106FF00FED34
:1024100003270102832C4102232E41012320810442
:1024200023223105232251038329810223246103BE
:10243000B30BEB000324C103032A8104832AC104E4
:102440009304700013090001130B0C0063880C083F
:10245000639809081304F4FF938CFCFF0327810E93
:10246000B387470123A058011307170023A248018F
:102470002326F10E2324E10E9388880063CEE40E18
:10248000834604003386BB41138C06006354D60098
:10249000130C0600635680038326810EB3878701E1
:1024A00023A0B8019386160023A288012326F10EEB
:1024B0002324D10E63C2D40E83460400938888007F
:1024C0001346FCFF1356F6413377CC00338CE640BD
:1024D000634C8001B38DDD00E39C0CF6638C095ED8
:1024E0009389F9FF6FF09FF78326810E6348890176
:1024F0006F008005130C0CFF6358890503278100CA
:10250000938707019386160023A0E80023A22801E1
:102510002326F10E2324D10E93888800E3DCD4FC1B
:102520001306410E93050B0013050D00EFA0804527
:1025300063100566130C0CFF8327C10E8326810EE2
:102540009308C110E34C89FB03278100B3878701FF
:102550009386160023A0E80023A288012326F10E0B
:102560002324D10E63CAD464834604009388880070
:10257000B38DDD006FF05FF61306410E93050B007F
:1025800013050D00EFA00040631405608327C10E02
:102590009308C1106FF0DFEE1306410E93050B0098
:1025A00013050D00EFA0003E6314055E8346040092
:1025B0008327C10E9308C1106FF09FF08327810419
:1025C0008325C104130900003304F4401386070077
:1025D00013050400EF70100D83C51C001306A00046
:1025E000930600003338B00013850400938509007A
:1025F000B38C0C01EFD010766FF01FA993079000F9
:10260000E3E497A86FF0DFAC130717009388860008
:10261000138906006FE09FB41306410E93050C006A
:1026200013050D00EFA00036631805B20326C10C98
:102630008327C10E9308C1106FF0DFAF37580180B8
:10264000130B08B66FF0DFC01306410E93050C00A4
:1026500013050D00EFA00033631005B08327C10EF2
:102660009308C1106FF00FC6930C60006FF05F8E7F
:10267000032701023308EB00B3049740B306B841C7
:102680001389040063DE96CE138906006FF04FCFE6
:102690008327C100130B04002310F7006FE08FD9CC
:1026A0008327410113090000232AE10083AC0700BE
:1026B0006FF0DF8083274101232AE10083AC07000C
:1026C00013D9FC41930709006FE01FE08327410104
:1026D00013090000232AE10083AC07006FE05FD6F6
:1026E0008327410113090000232AD10083AC07008E
:1026F000930710006FE0DFCC9307D002A303F10C27
:102700006FF05FCB1306410E93050C0013050D000F
:10271000EFA040276FE04FD31306410E93050C0046
:1027200013050D00EFA00026631805A20326C10CB7
:102730008327C10E0327810E9308C1106FF0DFB706
:10274000930700032304F10C9307800513672A0005
:10275000A304F10C2328E104930730062328010089
:10276000130BC11463C2B77B832BC10F93F7F4FD26
:102770002324F102232C0104032E010F832E410F89
:10278000032F810F136A2A1063CE0B4093071006A4
:10279000E384F414930710046384F4006FE0CFEA39
:1027A000930A010B13850A00232A11052328C10B64
:1027B000232AD10B232CE10B232E710BEF10517424
:1027C0001306C10CEF70C01C1386050093050500AD
:1027D00013850A00EF1051538327010B930C010A54
:1027E000130901092328F1088327410B1306010867
:1027F00093050900232AF1088327810B13850C0018
:102800002320C104232CF1088327C10B23200108B6
:1028100023220108232EF108B707FC3F2326F108E5
:1028200023240108EFF040568326010A032E410AB3
:10283000832E810A032FC10A93850C0013850A0099
:102840002328D10A2322D104232AC10B2322C10326
:10285000232CD10B2320D103232EE10B232EE101C6
:102860002320010A2322010A2324010A2326010A24
:10287000EFF0401C032FC101832E0102032E410201
:102880008326410483284105631605009307100041
:102890002326F10CB7570180938747B82322F10212
:1028A0001387FDFF232E4105232291062326B1071E
:1028B000232AA107232C8107232081062324310703
:1028C00023281107130C0B00930B0700232E61071D
:1028D000138D0600930D0E0093840E00130A0F0053
:1028E0006F00800493850C0013850A002320C10229
:1028F000232EF101232CF10B232EC10A2328610B77
:10290000232A310B2320010A2322010A2324010A4E
:102910002326010AEFF00012938BFBFF938F040034
:1029200013060A006302050EB707034013060900E9
:1029300093850C0013850A00232EF1082320A10B98
:102940002322B10B2324910A2326410B23280108BB
:10295000232A0108232C0108EFF0004313850A0005
:10296000EF101114930505001304050013850A00E8
:102970008329010B8324410B032B810B032AC10BF9
:10298000EF1051238326010B032601049305090050
:102990002320D1088326410B13850C0023283109FD
:1029A0002322D1088326810B232A9108232C610935
:1029B0002324D1088326C10B232E41092326D108C5
:1029C000EF00813B83274102032B010A8329410A3F
:1029D000B386870083C60600832F810A0326C10AB7
:1029E000232A81052300DC00232271059307F0FFD1
:1029F000130C1C00130D0B00938D090093840F0022
:102A0000130A0600E390FBEE8328010793030B00F3
:102A1000938209003709FE3F93850C0013850A0055
:102A200023201103232E8100032AC105832441069C
:102A3000032401062328710A23227106232A510A3E
:102A400023205106232CF10B232EF105232EC10A3E
:102A50002320C1042320010A2322010A2324010A7E
:102A60002326210BEFF0C009930B0C00832DC10628
:102A7000032D4107032C8107032BC10783298106FE
:102A8000832801026344A04A93850C0013850A0041
:102A9000EFE0507A83280102631805008327C10103
:102AA00093FC170063940C488327410493060003AA
:102AB000138717003387EB0063C80700938B1B0055
:102AC000A38FDBFEE31C77FFB3876B412320F1026A
:102AD0006FE08FC103270102130C0B00032B81024F
:102AE000232E8102032AC1013307EB0003240104D2
:102AF00083294104832A41026364B7016FE01FFF09
:102B0000930D07006FE09FFE0327C1019307D0FFDD
:102B10006344F70063D4ED029384E4FF93F7F4FD7C
:102B20002324F1026FE0CFBE8347710C930D0000A8
:102B3000638407006FE08FFD6FD09FFE0327C10104
:102B400083270102634CF72683270105930C0700B6
:102B500093F71700638607008327C102B30CF700C1
:102B60008327010593F70740638607008327C10188
:102B7000634CF04A93CAFCFF93DAFA41B3FA5C0162
:102B80009304700623240102232201026FE00FCA7E
:102B9000832B0101130C0B006FE05FDC2328010085
:102BA000138A0700B7070080B3CB77019307D002E1
:102BB000232CF1046FF09FBD1306410E93050B000B
:102BC00013050D00EF90105CE31405FC8346040030
:102BD0008327C10E9308C110B38DDD006FF0DF8F26
:102BE000930A010B9307010D1307C10C1308C10DC4
:102BF00093860D001306300093850A0013050D001F
:102C0000232011052328C10B2322C103232AD10B22
:102C10002320D103232CE10B232EE101232E710B62
:102C2000EF3080400347050093070003032FC101E5
:102C3000832E0102032E410283280104130B050099
:102C4000930C010A630CF7068327C10CB387B70105
:102C50003309FB0093850C0013850A00232E110114
:102C60002328C10B232AD10B232CE10B232E710B1C
:102C70002320010A2322010A2324010A2326010A10
:102C8000EFE0505B8328C10193060900631405003F
:102C90006FE00FA58326C10D63E426016FE04FA40A
:102CA0001307000393871600232EF10C2380E60000
:102CB0008326C10DE3E826FF6FE08FA2930C010A83
:102CC00093850C0013850A00232011052328C10BCE
:102CD0002322C103232AD10B2320D103232CE10B70
:102CE000232EE101232E710B2320010A2322010A46
:102CF0002324010A2326010AEFE0D053032FC10148
:102D0000832E0102032E410283280104E30E05F203
:102D100093071000B387B7412326F10C6FF01FF320
:102D20009307D002A303F10C6FF08FD11306410E6D
:102D300093050C0013050D00EF90D04463040500CB
:102D40006FE09FC18324C10C8327C10E9308C1107B
:102D50006FE05FDE37560180930E06D16FE01FCC27
:102D60008347710C232A210123240102232201021B
:102D7000232E0100938A0D00938C0D00930D00000B
:102D8000638407006FE08FD86FD09FD91306410E80
:102D900093050C0013050D00EF90D03E6304050071
:102DA0006FE09FBB8324C10C032701028327C10E60
:102DB0009308C110B30497406FE09FDC83270102A2
:102DC0000327C10293047006B38CE7008327C10177
:102DD0006356F0408327010593F707406398072463
:102DE00093CAFCFF93DAFA41B3FA5C016FF09FD902
:102DF00037580180130B88B66FF08FC58327010504
:102E00000327C10193F71700B3E7B701635EE03E04
:102E100063920720832CC101930460066FF09FFB2F
:102E2000930600FFB304C040635AD608130900019B
:102E3000930C70006F00C000938404FF63509908E6
:102E400083268100938707011307170023A0D8006A
:102E500023A228012326F10E2324E10E9388880063
:102E6000E3DCECFC1306410E93050C0013050D008A
:102E7000EF905031630405006FE01FAE8327C10E51
:102E80000327810E9308C1106FF01FFB9307F0FF1B
:102E90002326F1006FD05FDCB7560180938E06D1F8
:102EA0006FE0CFB7930B0A006FE00FE693070003C4
:102EB0002304F10C930780076FF05F89832681005C
:102EC000B38797001307170023A0D80023A2980008
:102ED0002326F10E2324E10E9306700063DEE6A89C
:102EE0001306410E93050C0013050D00EF90902979
:102EF000630405006FE05FA68327C10E0327810EE0
:102F00009308C1106FF08FBB93851D0013050D0052
:102F100023281101EF40407983280101130B05009C
:102F2000630405362328A1006FF01F848327410521
:102F300013870B00232EF10C8327410283C6FBFF6E
:102F400003C6F7006390C60293050003A30FB7FE04
:102F50000327C10D9307F7FF232EF10C8346F7FFDC
:102F6000E306D6FE13861600930590031376F60F3C
:102F70006386B600A30FC7FE6FF01FB5832741021B
:102F800003C6A700A30FC7FE6FF01FB413891D006F
:102F9000930A010B1308C10D9307010D1307C10C10
:102FA000930609001306200093850A0013050D00FF
:102FB0002328C10B2322C103232AD10B2320D103B1
:102FC000232CE10B232EE101232E710BEF30C005E2
:102FD000032FC101832E0102032E41028328010425
:102FE000130B050033092B01930C010A6FF09FC6E8
:102FF0003309BB01930C010A6FF0DFC563840D0038
:103000006FD0DFE1930D10006FD05FE1930D600092
:103010006FD0DFE08327C10293046006B30CF70092
:10302000B38CBC016FF01FDB930470060326C10351
:103030001307F00F834706006388E7228326C10148
:10304000130500009305000063DED700B386F64049
:103050008347160063840704938515001306160042
:10306000E394E7FE232ED100232EC1022322B102D6
:103070002324A1020327810283274102B387E700AB
:1030800003278104B387E702B38C970193CAFCFF3F
:1030900093DAFA41B3FA5C016FD05FF98347060017
:1030A000130515006FF0DFFB1307610D6398060031
:1030B00013070003230BE10C1307710D9306011B8B
:1030C00093870703B306D7402300F7009387D60DF5
:1030D000232CF1026FD05FF1930A010B13850A00D4
:1030E000232A11052328C10B232AD10B232CE10B02
:1030F000232E710BEF10C1601306C10CEF60500955
:10310000138605009305050013850A00EF10C13FE3
:103110008327010B930C010A130901092328F108E5
:103120008327410B1306010893050900232AF108A0
:103130008327810B13850C002320C104232CF10865
:103140008327C10B2320010823220108232EF10825
:10315000B707FC3F2326F10823240108EFE0D04203
:103160008326010A032E410A832E810A032FC10AF6
:1031700093850C0013850A002328D10A2322D10449
:10318000232AC10B2322C103232CD10B2320D103DB
:10319000232EE10B232EE1012320010A2322010A21
:1031A0002324010A2326010AEFE0D008032FC101DE
:1031B000832E0102032E4102832641048328410508
:1031C00063160500930710002326F10CB757018002
:1031D000938707B72322F1026FF08FECB38CFC408A
:1031E000938C1C0093CAFCFF93DAFA41B3FA5C019A
:1031F0006FF05F998327010593F717006394070029
:103200006FD09FE06FD0DFDF639A0700930A100052
:1032100093046006930C10006FF0DF968327C102C1
:1032200093046006938C1700B38CBC0193CAFCFF17
:1032300093DAFA41B3FA5C016FF0DF9493860800E9
:103240006FE01FBF8327410183AD070093874700CD
:1032500063D40D00930DF0FF83441400232AF10082
:10326000130407006FD0DF8323240102232201020D
:103270006FF05FE093072000232CF1026FD0DFD6C0
:1032800013890D006FF01FD68357CC0093E7070416
:103290002316FC006FD05F9B9307050003A5011F59
:1032A0009306060013860500938507006FD0CFE3D1
:1032B00083D7C50003AE450603D3E50083A8C50147
:1032C00003A84502130101B893F7D7FF1307004085
:1032D000232C8146231AF10013840500930701076C
:1032E00093058100232A914623282147232E114646
:1032F000130905002326C107231B610023221103A4
:10330000232601032324F100232CF1002328E100CC
:10331000232EE10023200102EFD00FDD93040500EE
:10332000635C05028357410193F707046388070034
:103330008357C40093E707042316F4008320C14792
:10334000032481470329014713850400832441474F
:1033500013010148678000009305810013050900EF
:10336000EF00C04FE30005FC9304F0FF6FF09FFBFC
:1033700083A7011F130101FF232481002322910051
:1033800023261100930405001384050063860700BB
:1033900003A78703630407080317C40093170701F3
:1033A0009376870093D70701638806088326040174
:1033B0006388060A13F61700630806020326440111
:1033C00023240400130500003306C040232CC4004E
:1033D000638A06028320C100032481008324410004
:1033E000130101016780000013F627009305000018
:1033F00063140600832544012324B4001305000050
:10340000E39A06FC93F70708E38607FC13670704B3
:103410002316E4001305F0FF6FF0DFFB13850700B0
:10342000EF0090060317C4009317070193768700F7
:1034300093D70701E39C06F693F60701638206081B
:1034400093F74700639407048326040113678700FA
:10345000931707012316E40093D70701E39C06F4B2
:1034600013F6072893050020E306B6F4930504003D
:1034700013850400EF30507D0317C4008326040138
:103480009317070193D707016FF0DFF28325040339
:10349000638E0500930704046388F5001385040018
:1034A000EF00501B0317C4002328040283260401E5
:1034B0001377B7FD232204002320D4006FF01FF9F7
:1034C0009307900023A0F400136707042316E40079
:1034D0001305F0FF6FF01FF0130101FD232C4101D4
:1034E00003AA811E232021032326110203298A1403
:1034F0002324810223229102232E3101232A510108
:10350000232861012326710123248101630009041A
:10351000130B0500938B0500930A10009309F0FF2D
:10352000832449001384F4FF63420402939424002B
:10353000B304990063840B0483A744106380770568
:103540001304F4FF9384C4FFE31634FF8320C10205
:103550000324810283244102032901028329C1013A
:10356000032A8101832A4101032B0101832BC1001E
:10357000032C8100130101036780000083274900A9
:1035800083A644009387F7FF638E870423A2040079
:10359000E38806FA8327891833978A00032C4900A9
:1035A000B377F70063920702E7800600032749001C
:1035B00083278A1463148701E38427F9E38807F8D3
:1035C000138907006FF0DFF58327C91883A5440826
:1035D0003377F700631C070013050B00E780060034
:1035E0006FF0DFFC232289006FF09FFA138505003E
:1035F000E78006006FF09FFB8397C500130101FE73
:10360000232C810023263101232E1100232A91002F
:103610002328210193F687001384050093090500F0
:10362000639C0610371700001307078083A6450028
:10363000B3E7E7002396F5006356D018032784020A
:10364000630C070C9397070193D70701B716000087
:1036500083A40900B3F6D70023A009008325C40181
:1036600063980616930610001306000013850900E0
:10367000E70007009307F0FF630EF5188357C400B7
:10368000032784028325C40193F74700638E070054
:1036900083264400832704033305D540638607004F
:1036A0008327C4033305F540130605009306000085
:1036B00013850900E70007009307F0FF631EF5106C
:1036C00003A709008317C400630A07169306D001F5
:1036D0006306D700930660016314D70C83260401A8
:1036E00037F7FFFF1307F77FB3F7E7002316F40060
:1036F000232204002320D4008325040323A099005F
:10370000638C0500930704046386F50013850900A4
:10371000EF00407423280402130500008320C10138
:103720000324810183244101032901018329C1006C
:10373000130101026780000003A90501E30E09FCE3
:1037400083A4050013970701135707011377370068
:1037500023A02501B38424419307000063140700CC
:1037600083A745012324F400634890006FF0DFFA3B
:103770003309A900E35290FA832744028325C40148
:10378000938604001306090013850900E7800700EB
:10379000B384A440E34EA0FC8357C4001305F0FF9C
:1037A00093E707048320C1012316F4000324810159
:1037B00083244101032901018329C100130101026E
:1037C0006780000003A7C503E34AE0E66FF0DFF47B
:1037D000032504056FF05FEB8357C40037F7FFFF45
:1037E0001307F77FB3F7E7008326040193970701D8
:1037F00093D7074113D7C7002316F40023220400F0
:103800002320D40093771700E38807EE2328A4042D
:103810006FF09FEE83A70900E38207E61307D0014C
:103820006388E702130760016384E7028357C400DB
:1038300093E707042316F4006FF05FEE37F7FFFFFE
:103840001307F77F83260401B3F7E7006FF09FFAB1
:1038500023A09900130500006FF05FEC130101FE37
:10386000232C8100232E110013040500630605009C
:1038700083278503638007028397C5006396070249
:103880008320C101032481011305000013010102FB
:10389000678000002326B100EF00003F8325C100B0
:1038A0008397C500E38E07FC130504000324810100
:1038B0008320C101130101026FF01FD463060506C6
:1038C000130101FE232C81001304050003A5011F31
:1038D000232E11006306050083278503638A0702F0
:1038E0008317C400639C07008320C1010324810166
:1038F0001305000013010102678000009305040016
:10390000032481018320C101130101026FF0DFCE86
:103910002326A100EF0040378317C4000325C10010
:10392000E38407FC6FF09FFD03A5811EB74500806F
:103930009385C5856F00D055130500006780000092
:10394000B7E500809385C5FF6F0090541305000014
:1039500067800000130101FEB7470080232E11008D
:10396000232C8100232A91002328210123263101C1
:103970002324410123225101232061010324450016
:1039800093870794232EF5021307C52E9307300063
:103990002324E52E2322F52E2320052E9307400015
:1039A000130905002326F400130680009305000088
:1039B00023220406232004002322040023240400DD
:1039C00023280400232A0400232C04001305C40523
:1039D000EFC0DFC437AB008083248900B7AA008022
:1039E00037AA0080B7A90080130BCBB1938A0AB81D
:1039F000130A8AC0938909C7B7070100232064030B
:103A0000232254032324440323263403232E840037
:103A10009387970023A6F400130680009305000007
:103A200023A2040623A0040023A2040023A404006C
:103A300023A8040023AA040023AC04001385C405B2
:103A4000EFC0DFBD0324C900B707020023A0640351
:103A500023A2540323A4440323A6340323AE9400D7
:103A6000938727012326F400232204062320040041
:103A7000232204002324040023280400232A040012
:103A8000232C04001305C4051306800093050000D1
:103A9000EFC0DFB88320C101232064032322540335
:103AA0002324440323263403232E8400032481018A
:103AB00093071000232CF9028324410103290101FB
:103AC0008329C100032A8100832A4100032B0100BE
:103AD0001301010267800000130101FF23229100FE
:103AE000130680069384F5FFB384C40223202101CA
:103AF00013890500232481002326110093854407A0
:103B0000EF30903A13040500630005021305C50069
:103B100023200400232224012324A40013868406E6
:103B200093050000EFC09FAF8320C1001305040080
:103B300003248100832441000329010013010101B2
:103B400067800000130101FE2328210103A9811EC3
:103B500023263101232E110083278903232C810082
:103B6000232A91002324410193090500638A070A4F
:103B70001309092E9304F0FF130A4000832749001C
:103B8000032489009387F7FF63D807006F0040087C
:103B900013048406638E97060317C4009387F7FF08
:103BA000E31807FEB707FFFF9387170023220406D9
:103BB0002320040023220400232404002326F400ED
:103BC00023280400232A0400232C04001306800069
:103BD000930500001305C405EFC05FA42328040269
:103BE000232A040223220404232404048320C10181
:103BF00013050400032481018324410103290101E9
:103C00008329C100032A810013010102678000009B
:103C100003240900630C0400130904006FF01FF66D
:103C200013050900EFF01FD36FF09FF49305C01A3E
:103C300013850900EF3050271304050063060502C1
:103C40001305C50023200400232244012324A400DB
:103C50001306001A93050000EFC05F9C2320890023
:103C6000130904006FF09FF1232009009307C0009F
:103C700023A0F9006FF09FF703A5811EB7E5008030
:103C80009385C5FF6F00D0208327850363840700D9
:103C9000678000006FF01FCC678000006780000025
:103CA000678000006780000003A5011FB745008002
:103CB000938585936F00901303A5011FB74500807E
:103CC0009385C5946F009012130101FF2324810096
:103CD000B7670180376401801304C4049387070524
:103CE000B3878740232291002326110093D42740D5
:103CF000638004029387C7FF33848700832704000F
:103D00009384F4FF1304C4FFE7800700E39804FEE4
:103D10008320C10003248100832441001301010199
:103D200067800000130101FE23263101232C81004E
:103D3000232A91002328210123244101232E11004D
:103D4000138A050013090500938941DCEF404047C1
:103D500003A78900B71700001384F7FE83244700E8
:103D60003304444193F4C4FF330494001354C40057
:103D70001304F4FF1314C400634EF4009305000011
:103D800013050900EF50103B83A78900B387970004
:103D90006308F50213050900EF40C0428320C1010A
:103DA0000324810183244101032901018329C100E6
:103DB000032A81001305000013010102678000003F
:103DC000B305804013050900EF50D0369307F0FF8C
:103DD0006308F5049387013403A7070083A68900CD
:103DE000B384844093E4140033048740130509002E
:103DF00023A2960023A08700EF40C03C8320C1018E
:103E00000324810183244101032901018329C10085
:103E1000032A8100130510001301010267800000CE
:103E20009305000013050900EF50D03003A7890067
:103E30009306F000B307E540E3DEF6F483A6411FE6
:103E400093E717002322F7003305D54023A0A134C0
:103E50006FF05FF463840512130101FF23248100D6
:103E600023229100138405009304050023261100EA
:103E7000EF4000350328C4FF130784FF9377E8FF62
:103E80003306F700938541DC8326460003A58500B1
:103E900093F6C6FF6306C51A2322D60013781800CE
:103EA0003305D600631E0808032384FF032845005A
:103EB00033076740832887001385C1DCB387670019
:103EC00013781800638EA8120323C70023A6680086
:103ED00023241301630E081C93E617002322D70046
:103EE0002320F6009306F01F63E6F60A93F687FF99
:103EF0009386860003A54500B386D50003A6060079
:103F000013D8570093071000B3970701B3E7A70032
:103F1000138586FF2326A7002324C70023A2F500CC
:103F200023A0E6002326E600032481008320C100AD
:103F30001385040083244100130101016F40802890
:103F40000325450013751500631C0502B387D700D0
:103F50001385C1DC8326860093E817003308F70039
:103F60006384A6160326C60023A6C6002324D60013
:103F7000232217012320F8006FF0DFF6678000008E
:103F800093E61700232ED4FE2320F6009306F01F9D
:103F9000E3FEF6F493D69700130640006368D60E4E
:103FA00093D6670013889603138686031318380088
:103FB0003388050183260800130888FF6304D8129C
:103FC00003A646001376C6FF63F6C70083A68600E5
:103FD000E318D8FE03A8C600232607012324D70030
:103FE000032481008320C1002324E80013850400FA
:103FF0008324410023A6E600130101016F40801CC9
:10400000631208148325C60003268600B387F600D2
:10401000032481002326B60023A4C50093E61700DD
:104020008320C1002322D700138504003307F70043
:10403000832441002320F700130101016F40801801
:1040400013781800B387D70063100802032584FF94
:104050003307A7408326C70003268700B387A7003E
:104060002326D60023A4C60013E6170083A6811FCB
:104070002322C70023A4E500E3E8D7EA83A5812132
:1040800013850400EFF01FCA6FF01FEA130640010A
:104090006374D602130640056364D60693D6C70040
:1040A0001388F6061386E606131838006FF05FF0E3
:1040B000B387D7006FF01FEA1388C6051386B605CD
:1040C000131838006FF0DFEE23AAE50023A8E500FF
:1040D0002326A7002324A700232217012320F8006A
:1040E0006FF09FE403A54500135626409307100088
:1040F0003396C7003366A60023A2C5006FF0DFED3C
:1041000013064015636CD60093D6F7001388860714
:1041100013867607131838006FF09FE91306405591
:10412000636CD60093D627011388D6071386C6077B
:10413000131838006FF0DFE71308803F1306E0071D
:104140006FF01FE793E617002322D7002320F60025
:104150006FF09FDD832786006388073083D7C50013
:10416000130101FD23248102232C4101232A510143
:10417000232611022322910223202103232E310121
:104180002328610123267101232481012322910127
:104190002320A10113F78700130A0600930A0500E4
:1041A000138405006306070803A7050163020708D7
:1041B00013F7270083240A00630C070883274402AF
:1041C0008325C401370B0080930900001309000008
:1041D000134B0BC01386090013850A006302090400
:1041E0009306090063742B0193060B00E780070018
:1041F0006352A02683278A00B389A9003309A94006
:104200003385A7402324AA006300052083274402A6
:104210008325C4011386090013850A00E31209FCF3
:1042200083A9040003A94400938484006FF09FFADB
:104230009305040013850A00EFF08F936314053A89
:104240008357C40083240A0013F72700E31807F6F6
:1042500013F7170063160712832C8400032504004C
:10426000370B0080934BEBFF130C00001309000089
:10427000134BFBFF630E090E13F707206308072497
:10428000138D0C00636E992D13F70748630A070816
:10429000832944018325040113071900939619000B
:1042A000B386360193D9F601330DB540B389D900F1
:1042B00093D919403307A7011386090063F6E90073
:1042C000930907001306070093F707406386072C3E
:1042D0009305060013850A00EF30003D930C05009E
:1042E000630A052E8325040113060D00EF30D04824
:1042F0008357C40093F7F7B793E707082316F40032
:104300003385AC01B387A941232894012320A4005D
:10431000232A3401930C09002324F400130D09000F
:1043200013060D0093050C00EF309057032784000F
:104330008327040093090900B30C9741B387A701B1
:10434000232494012320F4001309000003268A008B
:10435000330C3C01B309364123243A016386090A30
:10436000832C8400032504008357C400E31609F05E
:1043700003AC040003A94400938484006FF09FEF12
:10438000130B000013050000130C0000930900003C
:104390006380090E6306050E93070B00938B0900DB
:1043A00063F43701938B070003250400832704017E
:1043B0008326440163F8A70003298400338926017A
:1043C0006340790F63C4DB1A832744028325C40149
:1043D00013060C0013850A00E78007001309050087
:1043E000635AA006330B2B4113051000630C0B041A
:1043F00003268A00330C2C01B38929413309264155
:1044000023242A01E31609F8130500008320C102C2
:104410000324810283244102032901028329C1016B
:10442000032A8101832A4101032B0101832BC1004F
:10443000032C8100832C4100032D01001301010393
:10444000678000009305040013850A00EFF00FC198
:10445000E30005FA8317C40093E707042316F4006A
:104460001305F0FF6FF09FFA13050000678000004E
:1044700083A9440003AC040093848400E38A09FE0A
:10448000138609009305A00013050C00EF3050229D
:10449000630C051213051500330B85416FF0DFEF38
:1044A00093050C0013060900EF30903F83270400AA
:1044B0009305040013850A00B38727012320F40025
:1044C000EFF0CFB9E30005F26FF0DFF883270401C6
:1044D00063E2A70483274401636EF902930609008F
:1044E00063F42B0193060B00B3C6F60203274402C4
:1044F0008325C40113060C0013850A00B386F60257
:10450000E700070093090500E356A0F43309394199
:104510006FF0DFE393890C0063749901930909003C
:104520001386090093050C00EF3090378327840031
:1045300003270400B3873741330737012324F400EE
:104540002320E400E39407FC9305040013850A008C
:10455000EFF0CFB0E31005F0330939416FF01FDF02
:10456000930C0900130D09006FF09FDB13860B00FD
:1045700093050C00EF30D03203278400832704001A
:1045800013890B0033077741B38777012324E400B5
:104590002320F4006FF01FE513850A00EF405062FE
:1045A000930C0500E31E05D48325040113850A003E
:1045B000EFF05F8A8317C4001307C00023A0EA004E
:1045C00093F7F7F76FF05FE993871900138B0700F4
:1045D0006FF0DFDC1307C0008317C40023A0EA00DC
:1045E0006FF09FE71305F0FF6FF05FE2130101FE2C
:1045F00023282101232631012324410123225101B3
:1046000023206101232E1100232C8100232A9100F5
:10461000138B0500930A052E130A0000930910005E
:104620001309F0FF83A44A0003A48A009384F4FFD3
:1046300063C604028357C4009384F4FF63FCF9004B
:104640008317E4001305040063862701E7000B00CD
:10465000336AAA0013048406E39E24FD83AA0A0099
:10466000E3920AFC8320C1010324810183244101D8
:10467000032901018329C100832A4100032B010082
:1046800013050A00032A810013010102678000005C
:10469000130101FD23202103232E3101232C41018D
:1046A000232A5101232861012326710123261102A7
:1046B0002324810223229102930A0500938B050093
:1046C000130B052E130A0000930910001309F0FFC5
:1046D00083244B0003248B009384F4FF63C80402FB
:1046E0008357C4009384F4FF63FEF9008317E4004A
:1046F0009305040013850A0063862701E7800B00F9
:10470000336AAA0013048406E39C24FD032B0B00E8
:10471000E3100BFC8320C1020324810283244102A5
:10472000032901028329C101832A4101032B0101CD
:10473000832BC10013050A00032A81011301010321
:104740006780000093064500930700001305A5014C
:104750003788FFFF6F00C001939717002390E60092
:10476000939707019386260093D70701630ED5021E
:1047700003D70600137617006304060093E71700BB
:104780001357170013F62700B3650701E30606FC6D
:10479000939717002390B6009397070193862600FE
:1047A00093D70701E316D5FC6780000093068501C7
:1047B00013070000130525006F00C0011317170031
:1047C0002390F600131707019386E6FF135707019E
:1047D0006304D50483D706001396070113560641D8
:1047E0009397170063540600136717009397070108
:1047F00093D707011376270093E51700E30006FC23
:10480000131717002390B600131707019386E6FFCE
:1048100013570701E310D5FC67800000130101FE68
:10482000370E0100231D0100231E01009385850121
:104830009307C10113088100130EFEFF03D7050083
:104840009387E7FF9385E5FF63180702239F07FE21
:10485000E39607FF130646009306E10103D707001E
:104860009387270013062600231FE6FEE398D7FE52
:1048700013010102678000003307A70283D82700D5
:1048800003D30700B376C701B38616011357070198
:1048900093D80601330767003307170193580701C0
:1048A0002391D7002390E700239F17FFE39807F990
:1048B0006FF05FFA03570500835725006306070072
:1048C00037870000B3E7E7002399F5000357250079
:1048D000B78700009387F7FF6304F702930765002B
:1048E000938505011305850103D7070093872700EA
:1048F0009385E5FF2391E500E398A7FE678000001C
:10490000930765001305A50103D7070093872700C8
:10491000631A0702E39AA7FE138725019387050010
:1049200093872700239F07FEE31CF7FE83D725010B
:10493000378700001307F7FFB3E7E7002399F50077
:104940006780000013870501938705009387270080
:10495000239F07FEE31CF7FEB7C7FFFF2398F50070
:10496000B787FFFF93C7F7FF2399F5006780000023
:1049700083574500130101FF2322910023261100D4
:10498000232481002320210193040500639C070C4C
:1049900003576500130400009317070193D70741DD
:1049A00063C4070A9306A5011306000A63180702E9
:1049B000938764006F00800003D707009387270068
:1049C000239EE7FEE39AD7FE239C04001304040110
:1049D000630CC40603D76400E30C07FC937707F06D
:1049E00063900704138584019385240093070000D6
:1049F00013070500835607001307E7FF1396860089
:104A0000B3E7C7002311F70093D78600E394E5FED0
:104A100003D7640013048400937707F0E38807FC4E
:104A20001309000A6F00400113041400EFF01FD8AF
:104A3000634C890003D7640013170701135707411C
:104A400013850400E35207FE8320C1001305040010
:104A50000324810083244100032901001301010183
:104A60006780000013F707F01304000063100704C9
:104A70001309F0F66F0040011304F4FFEFF09FCC30
:104A8000E30424FD83D7440013850400E39607FE66
:104A90008320C10013050400032481008324410006
:104AA00003290100130101016780000093064500FE
:104AB0009305A501130700006F00800083D706004F
:104AC00013D687003367C700939787002390E600CB
:104AD000139707019386260013570701E390D5FE2D
:104AE00083D74400130480FF6FF09FF8130101FE89
:104AF000232C8100232A9100232E11002328210139
:104B000023263101938405001304050063C4050ABC
:104B10009307F000138605001305450093068401F2
:104B20009305F00063D497029307050003D727008D
:104B300093872700239FE7FEE39AF6FE231C0400D9
:104B4000130606FFE3C2C5FE93F4F400930770005A
:104B500063D897021307840193052400930700008C
:104B6000835607001307E7FF13968600B3E7C700D5
:104B70002311F70093D78600E394E5FE938484FF26
:104B8000638A04009384F4FF13050400EFF01FC24E
:104B9000E39A04FE130500008320C1010324810170
:104BA00083244101032901018329C100130101026A
:104BB00067800000930710FF3309B04063DEF512F1
:104BC0009305850193090000930645001306F00044
:104BD0000357840193870500B3E9E90003D7E7FF92
:104BE0009387E7FF2391E700E39AD7FE231204009F
:104BF000130909FFE34E26FD130900FF130710FFF9
:104C0000330999409307000063C6E40A3309F900A9
:104C10009307700063CA27056302090C8357840158
:104C20001309F9FF1305040093F71700B3E93701DF
:104C3000EFF05FB1E31409FE9397090193D70741A1
:104C40006396070813950901135505018320C101D7
:104C50000324810183244101032901018329C10027
:104C600013010102678000009399090193D909415A
:104C7000834784019305A401B3E9F90093990901DD
:104C800093D909019307000003D7060093862600F5
:104C900013568700B3E7C70013178700239FF6FE5C
:104CA0009317070193D70701E390D5FE130989FFF6
:104CB0006FF09FF6937709FFB307F0403309F900CF
:104CC00093077000E3DA27F56FF01FFA93091000DD
:104CD00013950901135505016FF05FF7138509005E
:104CE0006398090013150501135505016FF0DFEAFC
:104CF000130510006FF01FFF930790FF930900004A
:104D000093064500E3C6F5F66FF05FF18357250182
:104D1000378600001306F6FF93D7F700B307F0407D
:104D20002390F5008356250193070501138745005D
:104D3000B376D6002391D5006386C602138765003B
:104D4000239205001305E5FF83D607009387E7FF4D
:104D500013072700231FD7FEE318F5FE239C050049
:104D6000678000000356250133F6C600631ED60097
:104D7000130825019306050003D606009386260036
:104D8000631E0600E39A06FF9385A501130727001B
:104D9000231F07FEE39CE5FE678000001387650084
:104DA000239205001305C5FF83D607009387E7FF0D
:104DB00013072700231FD7FEE398A7FE6780000094
:104DC00083572501130101FB2324810493C7F7FFB7
:104DD000232611041397170113840500631E07008F
:104DE000930625019307050003D707009387270043
:104DF000631C0708E39AD7FE8357240193C7F7FF84
:104E0000139717016300070693058100EFF01FF069
:104E10009305410213050400EFF05FEF8355810015
:104E200003554102630CB5069307A1001307610205
:104E30001306010283D60700938727006398060AAA
:104E400083560700130727006392060AE314F6FE51
:104E5000130500008320C10403248104130101050C
:104E6000678000009307040003D70700930624011E
:104E700093872700631A0700E388D7F803D7070052
:104E800093872700E30A07FE8320C10403248104DB
:104E90001305E0FF13010105678000000356A10020
:104EA00083566102133515001307A10093076102B1
:104EB000131515001305F5FF9305C103938727000C
:104EC00013072700631ED600E384B7F803560700D4
:104ED00083D607001307270093872700E306D6FE33
:104EE000E3EAC6F63305A0406FF0DFF613051000C5
:104EF000E38205F61305F0FF6FF0DFF5130101FE05
:104F0000232C8100232A910023282101232631010B
:104F100023244101232251011389060093840700B1
:104F2000232E11001304050093890500130A0600BF
:104F3000930A0700EFF0DFA3930700093309A940A4
:104F400063DCA718B78700009387E7FF63DA2721A0
:104F500063840A1E03A5440083A70400630AF506C0
:104F60001387A4019387440313072700231F07FE19
:104F7000E31CF7FE930780036300F53663D0A718A0
:104F800093070004630EF52E930710076310F532A4
:104F9000B78700409387F7FF1307A00023AAF40008
:104FA000B787FFFF23A4E400239CF40023A6E400BA
:104FB0009307A00037870000938787009397170017
:104FC000B387F4002395E70023A0A4006358201DB5
:104FD00083A5840083D744011308F00813961500B5
:104FE0003306C40003570600B376F700634AA802ED
:104FF0001308B0006346B8029307060093058401C6
:1050000003D727006304070093E6160023910700E7
:1050100093872700E396F5FE0357060083D74401E4
:1050200093C7F7FFB3F7E7002310F60083D76401B7
:1050300033F7D700630007066392D702639809200D
:1050400083A7C40003D7840193971700B307F40024
:1050500083D70700B3F7E700638E070213862403A4
:10506000930684019384C40113070000835706004C
:1050700083D506009386E6FF1306E6FFB387B700E5
:10508000B387E70013D707012391F60013771700C2
:10509000E31E96FC6356201783574400639E071255
:1050A000B7870000231C04009387E7FF63C8270924
:1050B000231124018320C1010324810183244101A0
:1050C000032901018329C100032A8100832A4100A9
:1050D00013010102678000006354090E930700F773
:1050E000635CF908930724001304A4019387270045
:1050F000239F07FEE39C87FE6FF0DFFB9307800191
:10510000630AF514930750036312F51A371700006A
:10511000B7070004930660009387F77F13070780A3
:1051200023AAF40023A4D400239CE40023A6D400E3
:10513000930760006FF05FE8231C0400B787FFFF50
:1051400093C7F7FF2311F40093074400130484016D
:105150002390070093872700E31CF4FE6FF09FF570
:10516000930724001304A40193872700239F07FEBD
:10517000E39C87FE6FF01FF49305090013050400FC
:10518000EFF0DF966304050093091000638A0A0AB2
:1051900003A5440083A70400E314F5DC930700098A
:1051A0006302F508835784011305040093F7170081
:1051B000B3E9F900EFF00FD903A544006FF05FE108
:1051C000E3800AEE03A5440083A70400E31AF5D8A0
:1051D000E34020E16FF09FFC13050400EFF08FD651
:1051E000B787000013091900231C04009387E7FF09
:1051F000E3C627F5E35E09EA231104006FF09FEB95
:10520000930700096306F50013050400EFF00FDAB9
:1052100083574400E39207FC231C0400E34E09FC7F
:105220006FF01FE903A6840083D74401131616000C
:105230003306C40003570600B3F6E7006FF05FDEE5
:10524000231C0400231104006FF0DFE6E3080AE0EA
:105250006FF05FE4B70780009387F70F13074000F4
:1052600023AAF4009307001023A4E400239CF40075
:1052700023A6E40093074000130700106FF0DFD36C
:105280009307700023A4F400B70701809387F7FF0A
:1052900023AAF40093071000239CF40093076000F6
:1052A00023A6F400130710006FF01FD19307C0006E
:1052B00023A4F400B70701809387F7FF23AAF40023
:1052C00093071000239CF4009307B00023A6F4007A
:1052D000130710006FF05FCEB70780009387F70FBA
:1052E0001307600023AAF4009307001023A4E4002E
:1052F000239CF40023A6E40093076000130700102A
:105300006FF09FCB130101FD23202103232E3101D8
:1053100013890500835925002326110223248102C5
:1053200023229102232C41019304060023267101BC
:10533000232A510123286101232481012322910181
:105340002320A101930B0500EFF08FE20354290005
:105350009307050013050900B389F940138A440334
:10536000EFF00FE13304A4401387E40493070A002D
:1053700093872700239F07FEE39CE7FE63483409D9
:10538000138B4B00930A4900138CAB01130D2900BA
:1053900013870A0093070B0003D607008356070004
:1053A0009387270013072700631AD60AE39687FF1F
:1053B00013868B01130789019306000083570700AA
:1053C000835506001307E7FFB387D740B387B7407D
:1053D00093D607012311F70093F616001306E6FF94
:1053E000E31EEDFC930C100013050A00EFF00FBC58
:1053F00083D7C4041304F4FF13050900B3E7FC00CA
:105400002396F404EFF08FBAE35434F993060400C2
:10541000032481028320C1028329C101032A81015F
:10542000832A4101032B0101832BC100032C81003E
:10543000832C4100032D010093870400130509000C
:105440008324410203290102130700001306000010
:1054500093050000130101036FF05FAA930C000095
:10546000E3E4C6F86FF0DFF4130101F7232291089B
:105470009304050003552501378700001307F7FF44
:105480002324810823202109232C410723261108E6
:10549000232E3107232A510723286107232671076A
:1054A00023248107232291073375A7001389050060
:1054B00013040600138A0600631EE5009389240185
:1054C000138704000356070013072700631E0622F4
:1054D000E31A37FF03562901B78700009387F7FFC8
:1054E000B375F6006394F5129306290113070900BA
:1054F000835707001307270063960722E39AE6FE07
:10550000B78700009387F7FF6304F510930709003E
:1055100003D70700938727006318071CE39AF6FE5A
:10552000B75501809385C5DB13850400EFF05F89D3
:105530006308052003D5240103562901B78700001D
:105540009387F7FF3378F500B375F600630AF81A0E
:10555000B78700009387F7FF6390F514930629013E
:105560009307090003D707009387270063160712E4
:10557000E39AD7FE378700001307F7FF9358F5002B
:1055800093050800938924016304E80E035709007A
:105590001309290063180732E31AD9FE9357F6005E
:1055A000B3871741B337F0009397F7002319F4003E
:1055B000130724019307040093872700239F07FE06
:1055C000E39CE7FE83572401378700001307F7FFAA
:1055D000B3E7E7002319F4008320C10803248108FE
:1055E00083244108032901088329C107032A81076D
:1055F000832A4107032B0107832BC106032C810655
:10560000832C410613010109678000006316F50829
:10561000938924019387040003D707009387270009
:10562000631A072AE39AF9FEB75501809385C5DB13
:1056300013050900EFF0CFF86304051003562901A4
:10564000B78700009387F7FFB375F6006380F51204
:1056500003D524013377F5006310F7049387040022
:1056600003D70700938727006314072AE39AF9FEFC
:1056700083D7040093842400639A0724E39A34FFB9
:105680009358F500378700001307F7FFE398E5F01C
:10569000930629016FF09FEF138504009305C10065
:1056A000EFF0CFE69305810213050900EFF00FE656
:1056B0008354E1008359A102639E040A9307010108
:1056C000930641026382D72203D7070093872700FE
:1056D000E30A07FE1305C100EFF08FA90357A102EB
:1056E000B304A0406F00400903D52401B787000030
:1056F0009387F7FFB375F50013880500E392F5E68D
:10570000938924016FF09FF51387440183D7040028
:105710009384240013042400231FF4FEE398E4FE82
:105720006FF09FEB13074401835709001304240013
:1057300013092900231FF4FEE318E4FE6FF0DFE9EC
:10574000130704019307040093872700239F07FE94
:10575000E39CE7FEB7C7FFFF2318F400B787FFFFFE
:1057600093C7F7FF2319F4006FF01FE79306290191
:105770006FF0DFD913870900138909009307C1026D
:105780009306010463120702638AF61603D7070023
:1057900093872700E30A07FE13058102EFF04F9D70
:1057A0000357A1023389A9408357810293098A03D1
:1057B000231BEA02231AFA021307EA04938709005B
:1057C0002390070093872700E31CF7FE130CCA04FD
:1057D000930B0000930A4102930C0101130B610427
:1057E00003D50A00938AEAFF631C05088357CA049D
:1057F00013070C00B3EBFB000356E7FF1307E7FFAB
:105800002311C700E39AE9FE231C0A02E39A9AFDDA
:1058100013074A03930781021306210483560700E6
:105820009387270013072700239FD7FEE318F6FE70
:10583000B7C6FFFFB38424019386260093850B002F
:105840001305810293070A0013070004B386D400EE
:1058500013060000EFF08FEA035781028357C1005F
:105860009305040013058102B387E740B337F000C6
:10587000B307F0402314F102EFF0CF836FF0DFD5D0
:105880001306410493058102EFE05FF913050C0054
:10589000930500001306C105835705000357060052
:1058A0001305E5FF1306E6FF3307F7003307B700DC
:1058B000935507012311E50093F51500E31E66FDDE
:1058C0006FF0DFF2930700006FF09FCD93080000A8
:1058D0006FF05FDBB78700009387F7FFE388F5E899
:1058E00003D524016FF09FD79307440113042400CC
:1058F000231F04FEE31CF4FE6FF01FCE9307440148
:1059000013042400231F04FEE31CF4FE6FF0DFCC1D
:10591000378800001308F8FF6FF09FC383572501F5
:10592000130101F52324810A93C7F7FF2322910A6B
:105930002320210B232E31092326110A232C410970
:10594000232A510923286109232671092324810967
:10595000232291092320A109232EB10713971701B0
:1059600093040500138905001304060093890600BB
:10597000631E0700930625019307050003D7070060
:105980009387270063120730E39AD7FE83572901D4
:1059900093C7F7FF13971701631E070093062901AA
:1059A0009307090003D7070093872700631C072E7E
:1059B000E39AF6FE375A01809305CADB138504008B
:1059C000EFF00FC0630E052E03D624018355290185
:1059D000B78700009387F7FF3375F600B3F6F5003D
:1059E0006316F50A138824019387040003D7070080
:1059F0009387270063180708E39A07FFB78700001B
:105A00009387F7FF639AF62C930629019307090001
:105A100003D7070093872700631C0748E39AD7FE44
:105A2000130704019307040093872700239F07FEB1
:105A3000E39CE7FEB7C7FFFF2318F400B787FFFF1B
:105A400093C7F7FF2319F4008320C10A0324810AB6
:105A50008324410A0329010A8329C109032A8109F0
:105A6000832A4109032B0109832BC108032C8108D8
:105A7000832C4108032D0108832DC1071301010B5D
:105A800067800000B78700009387F7FF6380F626E2
:105A9000138504009305C101EFF04FA7930581031F
:105AA00013050900EFF08FA6835AA1038354E10187
:105AB00063860A2C232651011386040023249100B7
:105AC0009307010293064103631206026384F63AC8
:105AD00003D7070093872700E30A07FE1305C101D8
