:0200000480007A
:1000000017710100130181CA17750100130545B06E
:10001000B73200009382028033015100930280FFC7
:100020003371510023202500EF008013EF004008BA
:10003000B700001013014000238020006F00000073
:10004000130101FF23261100EF0080521306050063
:1000500037450180938605001305051CEF00807766
:100060008320C10013050000130101016780000017
:10007000B7050080130101FF1305B0009385852AA1
:1000800023261100EF0040478320C1001305B00074
:10009000130101016F00C048930700006388070047
:1000A00037450080130505D96FD0D05A678000000E
:1000B00097710100938101891385C11F13868136D1
:1000C0003306A64093050000EF00005F17E500002F
:1000D000130585D86308050017450000130585CB77
:1000E000EFD05057EF0080530325010093054100E6
:1000F00013060000EFF0DFF46F00404F130101FF23
:100100002324810083C74122232611006392070222
:1001100093070000638A0700376501801305C51245
:1001200097000000E7000000930710002382F122EF
:100130008320C100032481001301010167800000B6
:1001400093070000638C0700376501809385812247
:100150001305C51217030000670000006780000048
:100160009702000093820201739052306780000072
:10017000130101F9232011002322510023246100DF
:100180002326710023288100232A9100232CA1001B
:10019000232EB1002320C1022322D1022324E10215
:1001A0002326F10223280103232A1103232C2103F0
:1001B000232E3103232041052322510523246105E9
:1001C0002326710523288105232A9105232CA105C7
:1001D000232EB1052320C1072322D1072324E107C1
:1001E0002326F107F322203413D3F2016310030A0C
:1001F0001303B000638062086F00400A832001008F
:1002000083224100032381008323C10003240101D1
:1002100083244101032581018325C10103260102B5
:1002200083264102032781028327C1020328010399
:1002300083284103032981038329C103032A01047D
:10024000832A4104032B8104832BC104032C010561
:10025000832C4105032D8105832DC105032E010645
:10026000832E4106032F8106832FC1061301010748
:1002700073002030EF00000A232CA100F322103479
:1002800093824200739012346FF05FF7139512005F
:1002900013551500EF00C02A6FF05FF613850200BA
:1002A000EF00802B6FF0DFD803A6412003A7812049
:1002B0009307160093F7F70F638EE700374700F0B8
:1002C00083450700138701243307C7002300B700C5
:1002D00023A2F1206780000003C70120631A0700F2
:1002E00083A6C11C23AED11E130710002380E1207A
:1002F000630A050083A7C11C636AF50023AEA11E33
:100300006780000003A5C11F678000001305F0FF90
:1003100067800000930700051307050063C81703F3
:100320009307800363DA1719938778FC93067001AB
:1003300063E4F618B74601809397270093868620DA
:10034000B387D70083A70700678007009307600D76
:100350006394F81683C60120638E0600630C0716AB
:1003600083A7C11C636CF71623AEE11E13050700BB
:100370006780000003A6C11C23AEC11E93061000B7
:100380002380D1206FF09FFD9307100063EEA7003C
:10039000130500006780000093071000130530FE6E
:1003A00063E4E70067800000130570FF67800000CA
:1003B00093071000E31AF5FEE30C06FCB306B60043
:1003C0003707001083C70500938515002300F70049
:1003D000E39AD5FE1305060067800000E31605FCCE
:1003E00083A7812083A84120638E170FE30206FABA
:1003F00013070000138501246F0080006308E60ADC
:10040000B306F50003C8060093871700B386E5001E
:100410002380060193F7F70F13071700E390F8FE08
:1004200023A4112113050700678000009307100023
:10043000E31CF5F6B7270000130600009306000042
:100440009387071823AAA50023A0C50023A2D500DF
:1004500023A4C50023A6D50023A8F50023AC0500DE
:1004600023AE050023A0C50223A2D50223A8C502FE
:1004700023AAD50223AC050223A0C50423A2D504D8
:1004800023A4C50423A6D50423A8050423ACC504CE
:1004900023AED50423A0050623A4C50623A6D506AE
:1004A00023A80506130500006780000023A4F1209F
:1004B000130506006780000037450180130101FF26
:1004C000938508001305C51E23261100EF00803018
:1004D000EFF01FB603A5C11F678000001305F0FFF2
:1004E00067800000130550FF6780000037450180DA
:1004F000130585266F00803FB7670180131525001F
:1005000093870714B387A70023A0B7006780000074
:1005100073600430678000007370043067800000EF
:1005200093071000B397A70073A0473067800000BF
:1005300093071000B397A70073B04730678000009F
:10054000B76701801315250093870714B387A700A9
:1005500083A7070067800700130605003745018061
:1005600013054527F3263034F32510346F00802619
:10057000F32500C8732500C0F32700C8E39AF5FEF1
:1005800067800000F32520C8732520C0F32720C80A
:10059000E39AF5FE67800000732700C8F32700C0C8
:1005A000F32600C8E31AD7FE3385A700B337F5005A
:1005B0003307B7003386E700F32700C8F32600C0EF
:1005C000732700C8E39AE7FE63FCC700F32700C85F
:1005D000F32600C0732700C8E39AE7FEE3E8C7FEEE
:1005E0006314F600E3E4A6FE67800000130101FF38
:1005F0009305000023248100232611001304050025
:10060000EF20107A03A5811E8327C50363840700AA
:10061000E780070013050400EFF0903A130101FF93
:100620002324810023202101376401803769018060
:1006300093070413130909133309F9402326110002
:100640002322910013592940630009021304041363
:1006500093040000832704009384140013044400CF
:10066000E7800700E31899FE37640180376901804D
:10067000930704131309C9133309F9401359294087
:100680006300090213040413930400008327040089
:100690009384140013044400E7800700E31899FED4
:1006A0008320C10003248100832441000329010029
:1006B00013010101678000001303F0001307050018
:1006C000637EC3029377F7006390070A639205087D
:1006D000937606FF1376F600B386E6002320B70074
:1006E0002322B7002324B7002326B70013070701EE
:1006F000E366D7FE6314060067800000B306C340BC
:100700009396260097020000B38656006780C600C5
:100710002307B700A306B7002306B700A305B70059
:100720002305B700A304B7002304B700A303B70051
:100730002303B700A302B7002302B700A301B70049
:100740002301B700A300B7002300B70067800000B3
:1007500093F5F50F93968500B3E5D50093960501C3
:10076000B3E5D5006FF0DFF69396270097020000FF
:10077000B386560093820000E78006FA9380020059
:10078000938707FF3307F7403306F600E378C3F695
:100790006FF0DFF3130101FC2324C1022326D102F1
:1007A0002328E102232AF102232C0103232E110323
:1007B000138605008325850093068102232E1100F0
:1007C0002326D100EF00001C8320C1011301010486
:1007D0006780000003A3011F130101FC2324C10251
:1007E0002326D1022322B1022328E102232AF10287
:1007F000232C0103232E110383258300930641023A
:100800001306050013050300232E11002326D10033
:10081000EF0040178320C10113010104678000002D
:10082000130101FC232C810213040500138505002C
:10083000232A9102232E110293840500EF00C00B9E
:10084000B7470180938747202324F10293071000C4
:100850002326F10203278403930701029306150060
:10086000232AF10093072000232091022322A102D2
:10087000232ED100232CF10083258400630E07046E
:100880008397C500139727016342070203A7450614
:10089000B7260000B3E7D700B7E6FFFF9386F6FF61
:1008A0003377D7002396F50023A2E506130641010E
:1008B00013050400EF3090168320C1030324810345
:1008C0003335A0003305A040832441031365A50000
:1008D0001301010467800000130504002326B10002
:1008E000EF3000478325C1006FF09FF993050500A5
:1008F00003A5011F6FF0DFF29377350013070500A2
:10090000639C0704B7867F7F9386F6F79305F0FF15
:100910000326070013074700B377D600B387D70035
:10092000B3E7C700B3E7D700E384B7FE8346C7FF4A
:10093000B307A740638406048346D7FF638C06028F
:100940000345E7FF3335A0003305F5001305E5FF48
:1009500067800000E38806FA834707001307170043
:1009600093763700E39807FE3307A7401305F7FF98
:10097000678000001385D7FF678000001385C7FFDD
:1009800067800000130101E12326111E232A511D57
:100990002328611D2326711D930A0600938B0500F1
:1009A000232AD1002324811E2322911E2320211FCC
:1009B000232E311D232C411D2324811D2322911D13
:1009C0002320A11D232EB11B130B0500EF60D019AE
:1009D00083270500138507002328F102EFF0DFF1DC
:1009E0002326A1022328010E232A010E232C010E07
:1009F000232E010E63060B0083278B03638207708F
:100A00000397CB00B72600009317070193D7070180
:100A100033F6D7006318060203A64B06B367D70068
:100A20009397070137E7FFFF93D707411307F7FFB6
:100A30003377E6002396FB009397070123A2EB068A
:100A400093D7070113F78700630A072E03A70B014B
:100A50006306072E93F7A7011307A0006382E73010
:100A60009307C1102322F10E93880700B747018036
:100A70009387072E138D0A00232CF10003470D00E6
:100A8000B74701809387474F2326010E2324010E89
:100A900023200102232A0102232C0102232E01021A
:100AA0002324010423260104232601002324F1002A
:100AB0006308072213040D0093065002630AD7301F
:100AC0000347140013041400E31A07FEB304A441FF
:100AD0006308A4218326C10E0327810E23A0A80149
:100AE000B38696001307170023A298002326D10E81
:100AF0002324E10E930670009388880063C2E62EDB
:100B00008327C10003470400B38797002326F10021
:100B10006308071C1303F0FF034E1400A303010C2A
:100B20001304140093040000130900009309A005A6
:100B3000930A9000130CA002130A0300938D08007F
:100B400013041400930C0E0093870CFE63E4F90465
:100B50000327810193972700B387E70083A7070046
:100B6000678007009304000093860CFD834C04000B
:100B700093972400B387970093971700B384F600E8
:100B800093860CFD13041400E3F2DAFE93870CFE47
:100B9000E3F0F9FC93880D0063840C14230691158F
:100BA000A303010C93091000130C1000130DC114C2
:100BB0002328010013030000232401022322010241
:100BC000232E0100937A290063840A009389290067
:100BD000137A49080327C10E63160A00338834418B
:100BE000E34400498346710C638A06028326810E22
:100BF0001306710C23A0C80013071700130610007A
:100C00009386160023A2C8002326E10E2324D10ECA
:100C100013067000938888006344D62E638A0A0204
:100C20008326810E1306810C23A0C800130727001A
:100C3000130620009386160023A2C8002326E10E87
:100C40002324D10E1306700093888800E344D65203
:100C500093060008E302DA24B30D8341E348B0337E
:100C600093760910E39C060E8327810E33078701D4
:100C700023A0A8019387170023A288012326E10E51
:100C80002324F10E9306700063C4F63A938888001B
:100C9000137949006306090033893441634A203BD4
:100CA00063D43401938409008327C100B38797007C
:100CB0002326F100E3160738832701012324010EC0
:100CC000638807008325010113050B00EF30002521
:100CD0009308C110130D040003470D00E31C07DC4B
:100CE0008327C10E638407006F10D04483D7CB00E5
:100CF00093F70704638407006F2040298320C11EF7
:100D00000324811E0325C1008324411E0329011EE3
:100D10008329C11D032A811D832A411D032B011D27
:100D2000832BC11C032C811C832C411C032D011C13
:100D3000832DC11B1301011F6780000093850B00E9
:100D400013050B00EF20406F630405006F200024A3
:100D500083D7CB001307A00093F7A701E392E7D056
:100D60008397EB00E3CE07CE8326410113860A006A
:100D700093850B0013050B00EF2000602326A100D4
:100D80006FF0DFF713050B00EF60005E832745006F
:100D9000138507002326F104EFF01FB69307050023
:100DA00013050B00938C07002324F104EF60C05B54
:100DB00083278500232EF102E3980C74034E040070
:100DC0006FF01FD8034E0400136909026FF05FD75C
:100DD000B304A441E310A4D1034704006FF05FD330
:100DE0001306410E93850B0013050B00EFB0D03BAB
:100DF000E31E05EE9308C1106FF09FD013778900B2
:100E000013030A0093880D00E31207728327410140
:100E1000232841011305010B138A7700137A8AFFF7
:100E200083250A0003264A0093078A00232EB10176
:100E3000232AF100EF20515F8325010B0326410B8C
:100E40008326810B0327C10B8328C10103230101E2
:100E50001305010F232E110123286100232EE10E1B
:100E60002328B10E232AC10E232CD10EEF60C047D8
:100E70002326A10C13072000032301018328C101AD
:100E80006314E5006F10405A130710006314E50067
:100E90006F10406F130710066394EC006F10000290
:100EA00013071004930780056394EC006F10400152
:100EB00093F7FCFD1307F0FF2324F1026314E30012
:100EC0006F20801D130770046394E7006F20C01B20
:100ED000832AC10F23202105032A010F832E410FEE
:100EE000032F810F1367091063D40A006F10D025F8
:100EF000232C010413090700232801006F1080012F
:100F00001306410E93850B0013050B00232061048B
:100F1000EFB09029E31005140327C10E0323010449
:100F20009308C1106FF09FCF832A810E832701029F
:100F30009306100023A0A801930D1700938A1A00AE
:100F4000938C8800E3D8F63C9306100023A2D800C7
:100F50002326B10F2324510F9306700063D456014A
:100F60006F1000268327C10203270103938A1A000A
:100F7000B38DFD0023A0EC0023A2FC002326B10FBB
:100F80002324510F93067000938C8C0063D4560178
:100F90006F1040258326010F9305010A1305010BED
:100FA0002328D10A8326410F2320010A2322010A84
:100FB000232AD10A8326810F2324010A2326010A2A
:100FC000232CD10A8326C10F232ED10AEF00011C46
:100FD00083270102138CF7FFE30E0536938A1A006C
:100FE00093071D00B38D8D0123A0FC0023A28C016B
:100FF0002326B10F2324510F93077000938C8C008C
:10100000E3C85733832681039307410D938A1A005F
:101010003387B60123A0FC0023A2DC002326E10EC7
:101020002324510F9307700093888C00E3D257C795
:101030001306410E93850B0013050B00EFB0D0167D
:10104000E31A05000327C10E9308C1106FF05FC4B7
:10105000930600018327810E63C426016F10D073AD
:10106000B7460180938D464E930A0001130C700021
:101070006F00C000130909FF63D62A051307070193
:101080009387170023A0B80123A258012326E10E5D
:101090002324F10E93888800E35EFCFC1306410EC6
:1010A00093850B0013050B00EFB010106314057A45
:1010B000130909FF0327C10E8327810E9308C1106E
:1010C000E3CE2AFB330727019387170023A0B8013B
:1010D00023A228012326E10E2324F10E930670009B
:1010E000E3D0F6BC1306410E93850B0013050B00ED
:1010F000EFB0900B631005760327C10E6FF05FBA57
:1011000013050B00EF20D0446FF09F8F03274101A0
:1011100093880D00A303010C8327070013074700E2
:10112000232AE1002306F11493091000130C100088
:10113000130DC1146FF0DFA783274101A303010C36
:1011400013030A0003AD070093880D00138A4700BC
:10115000E3020D4E1307F0FF6314E3006F10003736
:10116000130603009305000013050D00232A6100F8
:10117000232EB101EF6090572328A10003234101E2
:101180008328C101631405006F10904D832701016E
:101190000347710C232A4101338CA7419349FCFF7B
:1011A00093D9F941232801002324010223220102BB
:1011B000232E0100B3793C0113030000E30407A0D0
:1011C000938919006FF01FA08327410183A40700B2
:1011D00093874700E3DE042AB3049040232AF100FA
:1011E000034E0400136949006FF09F958326410167
:1011F0009377090293880D0013874600E396072E24
:1012000093770901638407006F10802A937709049C
:10121000638407006F10806C137909206314090040
:101220006F10002983274101232AE1000327C10011
:1012300083A70700130D04002380E7006FF0DFA9E8
:10124000034E04009307C006E30AFE381369090140
:101250006FF01F8F03274101B787FFFF93C70783F5
:101260002314F10C93074700232AF1008329070078
:10127000B74701809387C72A93880D00232AF1027C
:1012800013030A00930A0000936D290093072000BE
:10129000930C800713070000A303E10C1307F0FF72
:1012A000630AE31E33E7590113F9FDF76312071EC2
:1012B000631803246394071A13FC1D00130D011B0C
:1012C000E31E0C1C0347710C93090C0063546C0063
:1012D0009309030023280100232401022322010291
:1012E000232E0100E31E07EC6FF0DF8D034E040098
:1012F00093078006E30CFE2E136909046FF05F84E8
:101300009307B002034E0400A303F10C6FF05F8358
:10131000034E0400136909086FF09F82834C040098
:101320001307140063948C016F10907F93860CFD5B
:1013300013040700130A0000E3E8DA80834C04007A
:1013400093172A00B387470193971700338AD70072
:1013500093860CFD13041400E3F2DAFE6FF0CFFE67
:10136000034E0400136919006FF08FFD8347710C61
:10137000034E0400639607FC93070002A303F10CDD
:101380006FF00FFC13030A0093880D001369090125
:1013900093770902E38E070683274101138A7700BA
:1013A000137A8AFF83290A00832A4A0093078A0056
:1013B000232AF100937DF9BF930700006FF09FEDA2
:1013C00093880D0013030A00936D090193F70D0232
:1013D000E388070683274101138A7700137A8AFF7F
:1013E00093078A00232AF10083290A00832A4A00EE
:1013F000930710006FF01FEA034E04001369890081
:101400006FF00FF413030A0093880D0013690901AC
:10141000937709026384077A83274101138A77004F
:10142000137A8AFF83274A0083290A0013078A0058
:10143000232AE100938A070063CC077A9307F0FF21
:10144000930D09006304F302B3E75901937DF9F7A3
:10145000639E07006312030213890D00130300004B
:10146000130C0000130D011B6FF0DFE5E3960A5A21
:1014700093079000E3E2375B93890903A307311BCD
:1014800013890D00130C1000130DF11A6FF09FE378
:10149000930D090013071000E38AE7FC13072000EF
:1014A000638CE706130D011B9397DA0113F779009C
:1014B00093D9390013070703B3E9370193DA3A00E8
:1014C000A30FEDFEB3E7590113060D00130DFDFF49
:1014D000E39C07FC93F61D00638A0606930600034F
:1014E0006306D7061306E6FF9307011BA30FDDFE75
:1014F000338CC74013890D00130D06006FF09FDC7D
:10150000130710006394E7006F10D02C130720001E
:10151000930D0900E398E7F883264103130D011B9F
:1015200093F7F900B387F60003C7070093D9490082
:101530009397CA01B3E9370193DA4A00A30FEDFE8E
:10154000B3E75901130DFDFFE39C07FC9307011B53
:10155000338CA74113890D006FF0DFD69306500638
:10156000E3D4969D8326010F9305010A1305010B11
:101570002328D10A8326410F232211052320E104C9
:10158000232AD10A8326810F2320010A2322010A5C
:10159000232CD10A8326C10F2324010A2326010A02
:1015A000232ED10AEFF0903E032701048328410443
:1015B0006316053E8327810EB74601809386C62DAC
:1015C00023A0D80013071700930610009387170075
:1015D00023A2D8002326E10E2324F10E93067000E7
:1015E00093888800E3C6F65E8327C10C8326010238
:1015F00063D2D768832701038326C10293888800BA
:1016000023ACF8FE8327810E3307D70023AED8FE24
:10161000938717002326E10E2324F10E9306700012
:1016200063CAF67E83270102938AF7FF635250E76D
:10163000930600018327810EE3DC565B130C000147
:10164000930C70006F00C000938A0AFFE3525C5B4A
:1016500083268100130707019387170023A0D80072
:1016600023A288012326E10E2324F10E938888000B
:10167000E3DCFCFC1306410E93850B0013050B0005
:10168000EFB080326318051C0327C10E8327810E3B
:101690009308C1106FF05FFB338A3441635E40DB17
:1016A000130600018326810E635A46092320810414
:1016B000930D000113840B00930A7000930B0B0031
:1016C000130B0A00138A0900930903006F00C0007E
:1016D000130B0BFF63D86D058327810013070701E8
:1016E0009386160023A0F80023A2B8012326E10E5A
:1016F0002324D10E93888800E3DCDAFC1306410E24
:101700009305040013850B00EFB0002AE318055081
:10171000130B0BFF0327C10E8326810E9308C11004
:10172000E3CC6DFB1383090093090A00130A0B0035
:10173000138B0B00930B0400032401048327810007
:10174000330747019386160023A0F80023A248011F
:101750002326E10E2324D10E1306700093888800FF
:10176000635CD6CE1306410E93850B0013050B0068
:1017700023206104EFB04023631E050C0327C10E34
:10178000032301049308C1106FF00FCD130600016D
:101790008326810E6352B607130A0001930A700074
:1017A0006F00C000938D0DFF6358BA058327810039
:1017B000130707019386160023A0F80023A248010F
:1017C0002326E10E2324D10E93888800E3DCDAFC83
:1017D0001306410E93850B0013050B00EFB0C01CE0
:1017E000631A0506938D0DFF0327C10E8326810E14
:1017F0009308C110E34CBAFB832781003307B7017C
:101800009386160023A0F80023A2B8012326E10E38
:101810002324D10E13067000938888006352D6C427
:101820001306410E93850B0013050B00EFB0C01794
:10183000631205020327C10E9308C1106FF04FC257
:101840001306410E93850B0013050B00EFB0C01576
:10185000630405C683250101638A05C813050B00CF
:10186000EF20C06B6FF08FC8B747018013060001EF
:101870008326810E938D474E6358060B23208104E7
:101880002322910413040B0093840B00130F000117
:10189000938B0D0093037000930D0D00130B080044
:1018A000138D0900930903006F00C000130B0BFF99
:1018B000635A6F05130707019386160023A078016A
:1018C00023A2E8012326E10E2324D10E9388880069
:1018D000E3DED3FC1306410E9385040013050400D8
:1018E000EFB0800CE310052E130F0001130B0BFF5C
:1018F0000327C10E8326810E9308C1109303700045
:10190000E34A6FFB1383090013080B0093090D00D2
:10191000130B0400138D0D0003240104938D0B00A1
:10192000938B040083244104330707019386160038
:1019300023A0B80123A208012326E10E2324D10EFF
:101940001306700093888800635ED6A81306410EC4
:1019500093850B0013050B0023206104EFB0C00436
:10196000E31A05EE0327C10E032301049308C110F7
:101970006FF04FA71306410E93850B0013050B0064
:1019800023206104EFB04002E31605EC0327C10EEB
:10199000032301049308C1106FF08FAB8325C10CA2
:1019A000E352B01A8327C10183260102138C07007A
:1019B00063C0F63A635680038326810E330787019E
:1019C00023A0A8019386160023A288012326E10EF6
:1019D0002324D10E1306700093888800E34CD66A46
:1019E0009346FCFF8327C10193D6F641337CDC008C
:1019F000338C8741634080478327C1019376094038
:101A0000B30CFD00E394064A8326C10C8327010230
:101A100063C6F60013761900E304066A0326010381
:101A20008327C1029305700023A0C8000326810EFE
:101A30003307F70023A2F800130616002326E10E51
:101A40002324C10E9388880063D4C5006F10C03D65
:101A500003260102B307CD00B306D640B38A9741EF
:101A600063D45601938A0600635850038327810E7E
:101A70003307570123A098019387170023A2580129
:101A80002326E10E2324F10E1306700093888800AC
:101A90006354F6006F10404093C7FAFF93D7F741A5
:101AA000B3FAFA00B38A56416354509F930600017B
:101AB0008327810EE3DE5613130C0001930C700094
:101AC0006F00C000938A0AFFE3545C1383268100F1
:101AD000130707019387170023A0D80023A28801CA
:101AE0002326E10E2324F10E93888800E3DCFCFC1E
:101AF0001306410E93850B0013050B00EFA0D06A6F
:101B0000E31A05D40327C10E8327810E9308C11061
:101B10006FF05FFB93751900639805C223A2D8008C
:101B20002326B10F2324510F9307700063DC57CD98
:101B30001306410E93850B0013050B00EFA0D06632
:101B4000E31A05D0832DC10E832A810E930CC11098
:101B50006FF04FCB635880CB93070001E3DC872104
:101B6000130D70006F00C000130C0CFFE3D487212D
:101B700003278100938D0D01938A1A0023A0EC00A6
:101B800023A2FC002326B10F2324510F938C8C0039
:101B9000E35C5DFD1306410E93850B0013050B00FE
:101BA000EFA09060E31805CA832DC10E832A810E31
:101BB000930CC110930700016FF01FFB0327410135
:101BC000937709018329070013074700232AE100BF
:101BD0006396071093770904638E070E93990901A2
:101BE00093D9094193DAF94193870A00E3D807842E
:101BF000B3373001B30A5041B38AFA40B3093041D8
:101C0000930D09001307D002930710006FF0CFE87F
:101C10000327410193770901832907001307470030
:101C2000232AE1006394070A93770904638C070869
:101C30009399090193D90901930A00006FF08FF776
:101C40000327410193F70D0183290700130747007C
:101C5000232AE1006392070693F70D0463880704C3
:101C60009399090193D90901930A00009307100081
:101C70006FF04FE293771900639407006FF04F8184
:101C80006FF05F9713030A0093880D006FF04FF811
:101C9000034E0400232AF1006FE09FEA930700033C
:101CA000A307F11A130DF11A6FF0CFE193F70D208E
:101CB0006384070093F9F90F930A0000930710005B
:101CC0006FF04FDD93770920E39E0742930A0000EF
:101CD0006FF04FEE93770920E39C074293DAF941C6
:101CE00093870A006FF04FF50326C10083A7060013
:101CF000232AE1009356F64123A0C70023A2D70070
:101D0000130D04006FE05FFD8327C103034E040041
:101D1000639407006FE0DFE283C707006394070066
:101D20006FE01FE2136909406FE09FE183274101E3
:101D300003A7070093874700232AF10083250700A4
:101D400003264700832687000327C7006FF04F90C4
:101D5000138C0600E34280C76FF09FC893880D0084
:101D600013030A00930D09006FF04FE6B747018097
:101D70009387C72A13030A0093880D00232AF102D0
:101D8000937709026386074083274101138A77000E
:101D9000137A8AFF83290A00832A4A0093078A005C
:101DA000232AF10093771900638E0700B3E75901E6
:101DB000638A0700930700032304F10CA304910D29
:101DC00013692900937DF9BF930720006FF08FCC32
:101DD00013030A0093880D006FF08FDB034E14008D
:101DE00013690902130414006FE09FD5034E140019
:101DF00013690920130414006FE09FD4B7470180D2
:101E00009387072C13030A0093880D00232AF102FD
:101E10006FF01FF71306410E93850B0013050B009F
:101E2000EFA09038E31805A20327C10E9308C11054
:101E30006FF04FFF93076000130C0300E3EE67267B
:101E4000B747018093090C00232A4101138D472DC8
:101E50006FE01FD6130600018326810E635486753A
:101E6000930D0001930C70006F00C000130C0CFF69
:101E700063DA8D73832781001307070193861600A9
:101E800023A0F80023A2B8012326E10E2324D10EBB
:101E900093888800E3DCDCFC1306410E93850B007D
:101EA00013050B00EFA05030E316059A0327C10E6F
:101EB0008326810E9308C1106FF05FFB93078007A4
:101EC00013070003A304F10C936729002304E10C1A
:101ED0002320F1041307300623280100130DC11439
:101EE000E348672A832AC10F93F7FCFD2324F102FC
:101EF000232C0104032A010F832E410F032F810F8E
:101F000013692910E3C60A24130710066394EC0032
:101F10006F1000221387FCFB9306500263EEE6006D
:101F2000B7460180131727009386C6443307D700AE
:101F3000032707006700070093060300130620002D
:101F40009309010B9307010D1307C10C1308C10D71
:101F50009385090013050B00232811052322610432
:101F60002322D102232AD10B2320D103232CE10BDE
:101F7000232EE1012328410B232E510BEF40400D6E
:101F80008327810213077004032FC101832E0102EE
:101F9000832641020323410483280105130D050014
:101FA000E382E764130760043306D500E398E72073
:101FB00083450500130700036394E5006F100028B4
:101FC000130C010A0327C10C3306E60093050C002D
:101FD00013850900232211032320C102232E61004F
:101FE0002328410B232AD10B232CE10B232E510B49
:101FF0002320010A2322010A2324010A2326010A9D
:10200000EFF0C018032601020323C1018328410217
:1020100093070600630205028327C10D63FEC70014
:102020009306000313871700232EE10C2380D700AB
:102030008327C10DE3E8C7FEB387A7412320F10240
:102040008327C10C13077004232EF100832781021C
:10205000E384E7508327810213076004E386E77077
:102060008327C1019305100493F6FC0F1387F7FF34
:10207000832781022326E10C130600006398B70032
:102080009386F60093F6F60F13061000230AD10C80
:102090009306B002635A07008327C101130710009B
:1020A0009306D0023307F740A30AD10C93069000A1
:1020B000E3DAE66E1303310E130503001306A000E6
:1020C000930E3006B367C702930505009306070019
:1020D0001305F5FF93870703A38FF5FE3347C70268
:1020E000E3C2DEFE130707031376F70FA30FC5FE47
:1020F0001387E5FF636467006F10801E9306610D10
:102100006F008000034607002380C60013071700F6
:1021100093861600E31867FE1307510E9307610DAF
:102120003307B7403387E7009306410DB307D74025
:10213000232CF10283270102832681031307100059
:10214000338CD700E35EF7748327C102330CFC00A5
:10215000832701049349FCFF93D9F94113F9F7BF91
:1021600013690910B3793C012324010223220102DF
:10217000232E010083278105E38007401307D00247
:10218000A303E10C13030000938919006FE09FA3E0
:1021900003274101937709018329070013074700AB
:1021A000232AE1006396070693770904638E0704E8
:1021B0009399090193D90901930A00006FF09FBE1A
:1021C0001306410E93850B0013050B00EFA0C07D95
:1021D000631205E8832DC10E832A810E930CC11072
:1021E0006FE05FD81306410E93850B0013050B00BB
:1021F000EFA0807B631005E6832DC10E832A810E3C
:10220000930CC1106FE01FD9937709206396076E76
:10221000930A00006FF01FB9B7DFCCCCB7060010EF
:10222000138CDFCC0329C10393F20D401307000088
:102230009305011B9386F6FF130F5000938FCFCCAD
:10224000130E9000130AF00F6F000006B3EE7E002D
:10225000B3F7D900B3FEDE00B387D701B387070118
:10226000B3F7E703B387F94033B6F9003386CA40C2
:102270003385F70333068603B3B587033306A60019
:10228000B38787033306B6009315F601135616007D
:1022900093D71700B3E7F50063800A5C93890700C2
:1022A000930A060093050D00939E4A0093D3C9013B
:1022B00033E67E003376D600B3F7D900B387C70084
:1022C00013D88A01B3870701B3F7E703138DF5FF2E
:1022D00013071700B387F94033B5F9003385AA40D7
:1022E00033B6870333058503B38787033305C500FA
:1022F0001315F50113D617003366C5009317260092
:10230000B387C70093971700B387F94093870703F4
:10231000A38FF5FEE38C02F283470900E318F7F27E
:10232000E30647F363940A2C63623E2D9307011B77
:10233000232E21032320E102338CA74113890D00B2
:102340006FE05FF88326810E374601801306C62DA5
:1023500023A0C80013071700130610009386160069
:1023600023A2C8002326E10E2324D10E13067000F9
:10237000938888006346D64E639E05188327010222
:1023800093761900B3E6F600639406006FE05F9061
:10239000832601038327C1021306700023A0D800FF
:1023A0008326810E3387E70023A2F8009386160068
:1023B0002326E10E2324D10E6346D65A9388880043
:1023C0006F008018130B0400938B04006FF08FC80C
:1023D0001306410E93850B0013050B00EFA0C05CA4
:1023E000631A05C60327C10E9308C1106FF0CF9F73
:1023F000832681003307570123A2580123A0D80068
:10240000938717002326E10E2324F10E9306700014
:1024100063C4F6006FE09F876FE09FC1138B0B00D2
:10242000930B04006FF00FC38327010F9305010A7C
:102430001305010B2328F10A8327410F23281101DB
:102440002320010A232AF10A8327810F2322010A6C
:102450002324010A232CF10A8327C10F2326010A12
:10246000232EF10AEFE0907383280101E342051E59
:102470000347710C9307700463D89741B7470180F5
:10248000138D072A2328010023240102232201029D
:10249000232E01001379F9F793093000130C300053
:1024A00013030000630407006FE09FD16FE08FF11A
:1024B00083274101130D040083A70700232AE100AD
:1024C0000327C10023A0E7006FE01F8113050D0063
:1024D0002320B105EFE04FC20347710C9349F5FF8C
:1024E00093D9F941232A4101232801002324010221
:1024F00023220102232E010083280104130C05006E
:10250000B379350113030000630407006FE05FCB6C
:102510006FE04FEB832601038327C102130670008F
:1025200023A0D8008326810E3387E70023A2F8007A
:10253000938616002326E10E2324D10E938888006B
:102540006342D642E3C20518832701029386160030
:1025500023A0A8013387E70023A2F8002326E10E79
:102560002324D10E9307700063C4D7006FE00FF2ED
:102570006FE01FAC83278100B38D8D01938A1A0011
:102580006FE09FA68327C10F63CE07380347710C06
:1025900093077004E3DC970FB7470180138D872AF8
:1025A0006FF05FEE83278100330787019386160063
:1025B00023A0F80023A288012326E10E2324D10EB4
:1025C00013067000938888006358D6C21306410E24
:1025D00093850B0013050B00EFA0003D631C05A6BF
:1025E0000327C10E9308C1106FF00FC18327810428
:1025F0008325C104232E5102330DFD4013860700AD
:1026000013050D00232411032322610223207102EC
:10261000232E01012328D101EF70D00A832E01015E
:1026200083230102B70700109386F7FF0328C10137
:1026300033E77E003377D700B3F7D900B387E700DD
:10264000B3870701130F5000B3F7E70303461900E0
:10265000B7D5CCCC938FC5CC3336C0003309C90075
:1026600003234102832881028322C1031307000050
:10267000130E9000B387F94033B6F9003386CA4091
:10268000B385F7033306860333B587033306B600F5
:10269000B38587033306A6009317F6011356160079
:1026A00093D51500B3E7B7006FF05FBF8327010232
:1026B000832A4102232E8100232021052322910415
:1026C00023223103832481022324A1030324C10391
:1026D000032981048329C104130C7000330AFD000F
:1026E000930D000163860A08639604081304F4FF3F
:1026F000938AFAFF8327810E3307270123A038012D
:102700009387170023A228012326E10E2324F10E2C
:1027100093888800634CFC0E83460400330D9A4175
:1027200063D4A601138D06006356A0038326810E91
:102730003307A70123A098019386160023A2A801BE
:102740002326E10E2324D10E6344DC0E83460400CD
:10275000938888001346FDFF1356F641B377CD00EA
:10276000338DF640634CA001B38CDC00E39E0AF687
:10277000638C045A9384F4FF6FF0DFF78326810E95
:1027800063C8AD016F008005130D0DFF63D8AD0563
:1027900083278100130707019386160023A0F80002
:1027A00023A2B8012326E10E2324D10E93888800AA
:1027B000E35CDCFC1306410E93850B0013050B0054
:1027C000EFA0801E63180588130D0DFF0327C10EAF
:1027D0008326810E9308C110E3CCADFB83278100D3
:1027E0003307A7019386160023A0F80023A2A801AF
:1027F0002326E10E2324D10E6342DC6083460400CD
:1028000093888800B38CDC006FF05FF61306410EEE
:1028100093850B0013050B00EFA00019630405005E
:102820006FF04F830327C10E9308C1106FF0DFEEE6
:102830001306410E93850B0013050B00EFA0C01685
:10284000630405006FF00F81834604000327C10E67
:102850009308C1106FF01FF0E3623EA56FF01FAD4B
:102860001306410E93850B0013050B00EFA0C01358
:10287000630405006FE01FFE8325C10C0327C10E12
:102880009308C1106FF05FAFB7470180138DC72960
:102890006FF05FBF1306410E93850B0013050B000D
:1028A000EFA08010630405006FE0DFFA0327C10E7C
:1028B0009308C1106FF0CF92130C60006FF04FD8E7
:1028C00003260102B307CD00B306D640B38A974171
:1028D00063D4569D938A06006FF00F9C83274101B5
:1028E000232AE1000327C10083A70700130D04007A
:1028F0002390E7006FE04FBE93F9F90F930A0000B1
:102900006FF04FCA93F9F90F930A00006FE09FAA86
:102910009399890193D9894193DAF94193870A0000
:102920006FE09FB19307D002A303F10C1307D0020D
:102930006FF01FC61306410E93850B0013050B00A5
:10294000EFA080066FE08FBA23280100130907006B
:10295000370700809307D002B34A5701232CF104B4
:102960006FF08FDA1306410E93850B0013050B00F1
:10297000EFA08003630405006FE0DFED8325C10C49
:102980000327C10E8326810E9308C1106FF09FBBF1
:102990009305130013050B00232E1101232861005A
:1029A000EF405054032301018328C101130D05009A
:1029B000E30A05182328A1006FF0CFD2130C010AF7
:1029C0006FF0CFE093061300130620006FF04FD78F
:1029D00093060300130630006FF08FD69309010BA6
:1029E00013850900232E1105232A6104232AD10B04
:1029F000232CE10B232E510B2328410BEF10814296
:102A00001306C10CEF60D07A13860500930505000C
:102A100013850900EF1041210327010B130C010A54
:102A2000930A01092328E1080327410B1306010833
:102A300093850A00232AE1080327810B13050C0064
:102A40002322C104232CE1080327C10B2320010802
:102A500023220108232EE1083707FC3F2326E10843
:102A600023240108EFE0D0278327010A0328410A25
:102A7000832E810A032FC10A93050C0013850900D8
:102A80002328F10A2328F104232A010B232201031E
:102A9000232CD10B2320D103232EE10B232EE10184
:102AA0002320010A2322010A2324010A2326010AE2
:102AB000EFE0C06D032FC101832E01020328410204
:102AC00083270105032341058328C10563160500FB
:102AD000130710002326E10C374701801307072C4A
:102AE0002322E102930DF3FF2322210723249106E1
:102AF000232A6107232C7107138B0D00930B0D0004
:102B0000232EA107232E810423209107232661066B
:102B100023281107138D0700930D080093840E00DE
:102B200013090F006F00800493050C001385090042
:102B30002320C102232EF101232CF10B232EC10AE5
:102B40002328410B232A910B2320010A2322010A67
:102B50002324010A2326010AEFE04063130BFBFF45
:102B6000938F0400130609006302050EB7070340A4
:102B700013860A0093050C0013850900232EF10823
:102B80002320A10B2322B10B2324910A2326210BFE
:102B900023280108232A0108232C0108EFE0501400
:102BA00013850900EF00D1619305050013040500AA
:102BB00013850900832C010B0329410B032A810B88
:102BC0008324C10BEF0011718327010B03264104FD
:102BD00093850A002320F1088327410B13050C007D
:102BE000232891092322F1088327810B232A210915
:102BF000232C41092324F1088327C10B232E91089C
:102C00002326F108EFF0D01183274102032A010A9D
:102C1000832C410AB387870083C70700832F810A6B
:102C20000326C10A232A71052380FB00232861059E
:102C30009307F0FF938B1B00130D0A00938D0C007C
:102C400093840F0013090600E310FBEE0323C10673
:102C50008328010793030A0093820C00B70AFE3F02
:102C600093050C001385090023206102232E110116
:102C700003294106832C0106930D04002328710AC1
:102C80000324C10523227106232A510A2320510659
:102C9000232CF10B232EF105232EC10A2322C1047C
:102CA0002320010A2322010A2324010A2326510B8F
:102CB000EFE0805A138A0B0083248106032B41071F
:102CC000032DC107832B81078328C1010323010240
:102CD0006346A03093050C001385090023201103DF
:102CE000232E6100EFE0804A0323C1018328010203
:102CF0006316050093FA1D0063920A2E83270105CF
:102D00001306000393861700B306DA0063C80700B2
:102D1000130A1A00A30FCAFEE39C46FFB307AA4199
:102D20002320F1026FF0CFB1032D8102832701022E
:102D3000232E810203290104B306FD000324C101EF
:102D4000832441048329410263E496016FE0DFCBD1
:102D5000938C06006FE05FCB8327C1011307D0FF80
:102D600063C4E7006354F302938CECFF93F7FCFD1C
:102D70002324F1026FF0CFAE0347710C1303000060
:102D8000630407006FE0CFC36FD0DFE38327010246
:102D90000327C1016340F71A8327010413F71700C3
:102DA0008327C101138C0700630607000327C102B4
:102DB000338CE7008327010413F7074063060700FD
:102DC0008327C1016346F02E9349FCFF93D9F94153
:102DD000B3793C01930C70062324010223220102E3
:102DE0006FF04FB9832701043306D50013F717009E
:102DF000E31607BC8327C10D6FF00FA41306410E25
:102E000093850B0013050B00EF90103A6304050047
:102E10006FE05FA4834604000327C10E9308C1102E
:102E2000B38CDC006FF09F941306410E93850B006A
:102E300013050B00EF905037630405006FE09FA16E
:102E40008326C10C0327C10E9308C1106FE05FC039
:102E50009307D002A303F10C1307D0026FF08FE1A8
:102E60000347710C232A410123240102232201027A
:102E7000232E010093090300130C03001303000029
:102E8000630407006FE0CFB36FD0DFD3B747018093
:102E9000138D472A6FF00FDF1306410E93850B0049
:102EA00013050B00EF905030630405006FE09F9A0C
:102EB0008326C10C832701020327C10E9308C1108A
:102EC000B386D7406FE05FBD130600FFB30AB04082
:102ED00063D6C516130C0001930C70006F00C00080
:102EE000938A0AFF635C5C1583278100130707013F
:102EF0009386160023A0F80023A288012326E10E62
:102F00002324D10E93888800E3DCDCFC1306410EF9
:102F100093850B0013050B00EF9010296304050047
:102F20006FE05F930327C10E8326810E9308C110C3
:102F30006FF01FFB832701020327C102930C700669
:102F4000338CE7008327C1016356F03683270104E1
:102F500013F70740631007169349FCFF93D9F94113
:102F6000B3793C016FF05FE78327010413F7170083
:102F70008327C10133676700635AF036631807344B
:102F8000032CC101930C60066FF05FFC9307F0FF08
:102F90002326F1006FD09FD6B7460180938D464E11
:102FA0006FE04F929306610D6318060093060003CD
:102FB000230BD10C9306710D9307011B3386F6404A
:102FC000130707039307D60D2380E600232CF10295
:102FD0006FF04F96930D09006FE00FCA83274105EC
:102FE00093060A00232EF10C832741020346FAFFC1
:102FF00083C5F7006390C50213050003A38FA6FEE7
:103000008326C10D9387F6FF232EF10C03C6F6FF2E
:10301000E386C5FE930516001305900393F5F50F9F
:103020006306A600A38FB6FE6FF05FCF8327410231
:1030300083C5A700A38FB6FE6FF05FCE8327810004
:10304000330757019386160023A0F80023A25801E6
:103050002326E10E2324D10E130670006350D6B64A
:103060001306410E93850B0013050B00EF90D01350
:10307000630405006FE00FFE0327C10E8326810E57
:103080009308C1106FF04FCC630403006FD05FE46E
:10309000130310006FD0DFE3130360006FD05FE312
:1030A0008327010413F717006304078A6FF0CF89A1
:1030B000930C70060326C1039306F00F0347060026
:1030C000630AD7288327C101130500009305000078
:1030D000635EF700B387E740034716006304070405
:1030E0009385150013061600E314D7FE232EC102A4
:1030F000232EF1002322B1022324A102832781027F
:10310000032741023387E700832781043307F7024F
:10311000330C87019349FCFF93D9F941B3793C0102
:103120006FF04F8503470600130515006FF0DFFBB6
:103130009309010B13850900232E1105232A61042D
:10314000232AD10B232CE10B232E510B2328410BD7
:10315000EF00514D1306C10CEF609005138605007A
:103160009305050013850900EF00112C0327010BBF
:10317000130C010A930A01092328E1080327410BD4
:103180001306010893850A00232AE1080327810B0F
:1031900013050C002322C104232CE1080327C10BD3
:1031A0002320010823220108232EE1083707FC3FD2
:1031B0002326E10823240108EFE080328327010A57
:1031C0000328410A832E810A032FC10A93050C00AC
:1031D000138509002328F10A2328F104232A010B6F
:1031E00023220103232CD10B2320D103232EE10B17
:1031F000232EE1012320010A2322010A2324010AAC
:103200002326010AEFD09078032FC101832E0102FB
:103210000328410283270105032341058328C105B3
:1032200063160500130710002326E10C37470180C1
:103230001307C72A2322E1026FF0DF8A130C010A69
:1032400093050C0013850900232A11052328C104C6
:1032500023226102232AD10B2320D103232CE10B4B
:10326000232EE1012322D1042328410B232E510BCD
:103270002320010A2322010A2324010A2326010A0A
:10328000EFD0D070032FC101832E0102032341022E
:103290000326010583284105631405006FE09FD2D2
:1032A00083264104130710003307D7402326E10C7F
:1032B0006FE09FD1330CFC40130C1C009349FCFFC2
:1032C00093D9F941B3793C016FF01FB10327C102D3
:1032D000930C6006338CE700330C6C006FF01FC753
:1032E00093072000232CF1026FE0DFE4631A07004C
:1032F00093091000930C6006130C10006FF0DFAD03
:103300008327C102930C6006138C1700330C6C00EA
:103310009349FCFF93D9F941B3793C016FF0DFABDE
:103320008327410103AA07009387470063540A00DB
:10333000130AF0FF034E1400232AF10013040700C0
:103340006FD01F8083D7CB0093E707042396FB0041
:103350006FD0DF9923240102232201026FF01FDACC
:103360009307050003A5011F9306060013860500B9
:10337000938507006FD00FE183D7C50003AE4506E4
:1033800003D3E50083A8C50103A84502130101B8D2
:1033900093F7D7FF13070040232C8146231AF1002F
:1033A000138405009307010793058100232A9146A2
:1033B00023282147232E1146130905002326C10780
:1033C000231B610023221103232601032324F10080
:1033D000232CF1002328E100232EE1002320010209
:1033E000EFD04FDA93040500635C05028357410177
:1033F00093F70704638807008357C40093E7070423
:103400002316F4008320C147032481470329014781
:10341000138504008324414713010148678000009D
:103420009305810013050900EF00C04FE30005FC80
:103430009304F0FF6FF09FFB83A7011F130101FFAF
:1034400023248100232291002326110093040500E8
:10345000138405006386070003A787036304070836
:103460000317C400931707019376870093D70701CA
:1034700063880608832604016388060A13F617008A
:1034800063080602032644012324040013050000F8
:103490003306C040232CC400638A06028320C10087
:1034A000032481008324410013010101678000008F
:1034B00013F62700930500006314060083254401DA
:1034C0002324B40013050000E39A06FC93F70708D1
:1034D000E38607FC136707042316E4001305F0FFD7
:1034E0006FF0DFFB13850700EF0090060317C400A1
:1034F000931707019376870093D70701E39C06F69D
:1035000093F607016382060893F747006394070464
:103510008326040113678700931707012316E4002D
:1035200093D70701E39C06F413F6072893050020C0
:10353000E306B6F49305040013850400EF30D0735E
:103540000317C400832604019317070193D70701CB
:103550006FF0DFF283250403638E050093070404F4
:103560006388F50013850400EF00501B0317C400A7
:1035700023280402832604011377B7FD23220400C5
:103580002320D4006FF01FF99307900023A0F400CC
:10359000136707042316E4001305F0FF6FF01FF014
:1035A000130101FD232C410103AA811E23202103C5
:1035B0002326110203298A14232481022322910243
:1035C000232E3101232A5101232861012326710171
:1035D0002324810163000904130B0500938B05006C
:1035E000930A10009309F0FF832449001384F4FF29
:1035F0006342040293942400B304990063840B048F
:1036000083A74410638077051304F4FF9384C4FFF9
:10361000E31634FF8320C102032481028324410284
:10362000032901028329C101032A8101832A41015F
:10363000032B0101832BC100032C81001301010323
:10364000678000008327490083A644009387F7FF23
:10365000638E870423A20400E38806FA832789186F
:1036600033978A00032C4900B377F700639207026F
:10367000E78006000327490083278A146314870123
:10368000E38427F9E38807F8138907006FF0DFF573
:103690008327C91883A544083377F700631C070004
:1036A00013050B00E78006006FF0DFFC2322890082
:1036B0006FF09FFA13850500E78006006FF09FFB0F
:1036C0008397C500130101FE232C810023263101BD
:1036D000232E1100232A91002328210193F687002D
:1036E0001384050093090500639C0610371700003A
:1036F0001307078083A64500B3E7E7002396F5008C
:103700006356D01803278402630C070C93970701B4
:1037100093D70701B716000083A40900B3F6D700BA
:1037200023A009008325C4016398061693061000A0
:103730001306000013850900E70007009307F0FF58
:10374000630EF5188357C400032784028325C40140
:1037500093F74700638E0700832644008327040302
:103760003305D540638607008327C4033305F5403E
:10377000130605009306000013850900E700070003
:103780009307F0FF631EF51003A709008317C40019
:10379000630A07169306D0016306D70093066001FB
:1037A0006314D70C8326040137F7FFFF1307F77F55
:1037B000B3F7E7002316F400232204002320D400EB
:1037C0008325040323A09900638C05009307040458
:1037D0006386F50013850900EF0040742328040276
:1037E000130500008320C1010324810183244101CA
:1037F000032901018329C100130101026780000030
:1038000003A90501E30E09FC83A405001397070132
:10381000135707011377370023A02501B3842441F0
:10382000930700006314070083A745012324F400D5
:10383000634890006FF0DFFA3309A900E35290FA71
:10384000832744028325C4019386040013060900DC
:1038500013850900E7800700B384A440E34EA0FC71
:103860008357C4001305F0FF93E707048320C101C9
:103870002316F4000324810183244101032901015B
:103880008329C100130101026780000003A7C5035B
:10389000E34AE0E66FF0DFF4032504056FF05FEB29
:1038A0008357C40037F7FFFF1307F77FB3F7E7002D
:1038B000832604019397070193D7074113D7C700C5
:1038C0002316F400232204002320D400937717004A
:1038D000E38807EE2328A4046FF09FEE83A7090076
:1038E000E38207E61307D0016388E702130760014C
:1038F0006384E7028357C40093E707042316F400A8
:103900006FF05FEE37F7FFFF1307F77F83260401A1
:10391000B3F7E7006FF09FFA23A0990013050000AA
:103920006FF05FEC130101FE232C8100232E1100A8
:1039300013040500630605008327850363800702DF
:103940008397C500639607028320C1010324810188
:103950001305000013010102678000002326B10057
:10396000EF00003F8325C1008397C500E38E07FC6D
:1039700013050400032481018320C1011301010206
:103980006FF01FD463060506130101FE232C81008E
:103990001304050003A5011F232E11006306050073
:1039A00083278503638A07028317C400639C07008B
:1039B0008320C101032481011305000013010102CA
:1039C0006780000093050400032481018320C10166
:1039D000130101026FF0DFCE2326A100EF00403774
:1039E0008317C4000325C100E38407FC6FF09FFD2B
:1039F00003A5811EB7450080938545926F005057FF
:103A00001305000067800000B7E50080938545FB43
:103A10006F0010561305000067800000130101FEBF
:103A2000B7470080232E1100232C8100232A910008
:103A3000232821012326310123244101232251017E
:103A40002320610103244500938787A0232EF502DC
:103A50001307C52E930730002324E52E2322F52ECD
:103A60002320052E93074000130905002326F400A8
:103A7000130680009305000023220406232004007F
:103A8000232204002324040023280400232A040002
:103A9000232C04001305C405EFC01FC237AB008000
:103AA00083248900B7AA008037AA0080B7A90080C4
:103AB000130BCBB3938A0ABA130A8AC2938909C932
:103AC000B707010023206403232254032324440363
:103AD00023263403232E84009387970023A6F40023
:103AE000130680009305000023A2040623A004000F
:103AF00023A2040023A4040023A8040023AA040092
:103B000023AC04001385C405EFC01FBB0324C90008
:103B1000B707020023A0640323A2540323A4440391
:103B200023A6340323AE9400938727012326F400B1
:103B3000232204062320040023220400232404005B
:103B400023280400232A0400232C04001305C405A1
:103B50001306800093050000EFC01FB68320C1014B
:103B60002320640323225403232444032326340301
:103B7000232E84000324810193071000232CF902D3
:103B800083244101032901018329C100032A810003
:103B9000832A4100032B010013010102678000000A
:103BA000130101FF23229100930780069384F5FF00
:103BB000B384F4022320210113890500232481000A
:103BC0002326110093854407EF30D03113040500FC
:103BD000630005021305C5002320040023222401ED
:103BE0002324A4001386840693050000EFC0DFACF5
:103BF0008320C100130504000324810083244100B5
:103C0000032901001301010167800000130101FE77
:103C10002328210103A9811E23263101232E11000F
:103C200083278903232C8100232A91002324410127
:103C300093090500638A070A1309092E9304F0FF0C
:103C4000130A400083274900032489009387F7FF64
:103C500063D807006F00400813048406638E97063C
:103C60000317C4009387F7FFE31807FEB707FFFFAA
:103C70009387170023220406232004002322040034
:103C8000232404002326F40023280400232A04000C
:103C9000232C040013068000930500001305C405BF
:103CA000EFC09FA123280402232A04022322040434
:103CB000232404048320C10113050400032481018B
:103CC00083244101032901018329C100032A8100C2
:103CD000130101026780000003240900630C040043
:103CE000130904006FF01FF613050900EFF01FD34E
:103CF0006FF09FF49305C01A13850900EF30901EF2
:103D000013040500630605021305C5002320040003
:103D1000232244012324A4001306001A9305000063
:103D2000EFC09F9923208900130904006FF09FF1D1
:103D3000232009009307C00023A0F9006FF09FF72C
:103D400003A5811EB7E50080938545FB6F005022D7
:103D50008327850363840700678000006FF01FCC12
:103D600067800000678000006780000067800000B7
:103D700003A5011FB7450080938505A06F001015AE
:103D800003A5011FB7450080938545A16F0010145E
:103D9000130101FF23248100B7670180376401808C
:103DA0009387C713130404143304F44023229100AF
:103DB0002326110093542440638004021304C4FF9B
:103DC0003304F400832704009384F4FF1304C4FF36
:103DD000E7800700E39804FE8320C10003248100EC
:103DE000832441001301010167800000130101FEDB
:103DF00023263101232C8100232A9100232821012D
:103E000023244101232E1100138A05001309050004
:103E1000938941DCEF40803E03A78900B71700007B
:103E20001384F7FE832447003304444193F4C4FF12
:103E3000330494001354C4001304F4FF1314C40097
:103E4000634EF4009305000013050900EF50903015
:103E500083A78900B38797006308F502130509005B
:103E6000EF40003A8320C1010324810183244101F2
:103E7000032901018329C100032A810013050000E1
:103E80001301010267800000B3058040130509009B
:103E9000EF50502C9307F0FF6308F504938701342B
:103EA00003A7070083A68900B384844093E4140029
:103EB000330787401305090023A2960023A0E700DB
:103EC000EF4000348320C101032481018324410198
:103ED000032901018329C100032A81001305100071
:103EE000130101026780000093050000130509001B
:103EF000EF50502603A789009306F000B307E54072
:103F0000E3DEF6F483A6411F93E717002322F700B0
:103F10003305D54023A0A1346FF05FF4638405120C
:103F2000130101FF23248100232291001384050043
:103F30009304050023261100EF40402C0328C4FF02
:103F4000130784FF9377E8FF3306F700938541DC7E
:103F50008326460003A5850093F6C6FF6306C51AAF
:103F60002322D600137818003305D600631E0808F4
:103F7000032384FF03284500330767408328870015
:103F80001385C1DCB387670013781800638EA8120D
:103F90000323C70023A6680023241301630E081C13
:103FA00093E617002322D7002320F6009306F01F84
:103FB00063E6F60A93F687FF9386860003A545001D
:103FC000B386D50003A6060013D857009307100048
:103FD000B3970701B3E7A700138586FF2326A70041
:103FE0002324C70023A2F50023A0E6002326E60031
:103FF000032481008320C100138504008324410031
:10400000130101016F40C01F032545001375150002
:10401000631C0502B387D7001385C1DC83268600A5
:1040200093E817003308F7006384A6160326C6003A
:1040300023A6C6002324D600232217012320F8003C
:104040006FF0DFF66780000093E61700232ED4FEA2
:104050002320F6009306F01FE3FEF6F493D69700B4
:10406000130640006368D60E93D667001388960344
:104070001386860313183800338805018326080049
:10408000130888FF6304D81203A646001376C6FF00
:1040900063F6C70083A68600E318D8FE03A8C6000F
:1040A000232607012324D700032481008320C10095
:1040B0002324E800138504008324410023A6E6009E
:1040C000130101016F40C013631208148325C60059
:1040D00003268600B386F600032481002326B6005B
:1040E00023A4C50093E716008320C1002322F70014
:1040F000138504003307D700832441002320D70011
:10410000130101016F40C00F13781800B386D70068
:1041100063100802032584FF3307A7408327C700E5
:1041200003268700B386A6002326F60023A4C70033
:1041300013E6160083A7811F2322C70023A4E500EE
:10414000E3E8F6EA83A5812113850400EFF01FCA96
:104150006FF01FEA130640016374D6021306400590
:104160006364D60693D6C7001388F6061386E60660
:10417000131838006FF05FF0B387D7006FF01FEAB5
:104180001388C6051386B605131838006FF0DFEEE6
:1041900023AAE50023A8E5002326A7002324A700DF
:1041A000232217012320F8006FF09FE403A54500A8
:1041B0001356264093071000B397C700B3E7A70034
:1041C00023A2F5006FF0DFED13064015636CD600F7
:1041D00093D6F700138886071386760713183800DE
:1041E0006FF09FE913064055636CD60093D6270104
:1041F0001388D6071386C607131838006FF0DFE759
:104200001308803F1306E0076FF01FE793E61700DF
:104210002322D7002320F6006FF09FDD832786003E
:104220006380073283D6C500130101FD2324810278
:10423000232C4101232671012326110223229102FE
:1042400023202103232E3101232A51012328610138
:1042500023248101232291012320A10193F78600C9
:10426000930B0600130A05001384050063860708F4
:1042700083A705016382070893F7260083A40B0038
:10428000638C0708832744028325C401B70A008092
:10429000930900001309000093CA0AC0138609009D
:1042A00013050A00630209049306090063F42A0156
:1042B00093860A00E7800700635AA02683A78B0035
:1042C000B389A9003309A940B387A74023A4FB0001
:1042D00063880720832744028325C40113860900CD
:1042E00013050A00E31209FC83A9040003A9440092
:1042F000938484006FF09FFA9305040013050A006D
:10430000EFF08F936310053C8356C40083A40B0029
:1043100093F72600E39807F693F71600639E0712BB
:104320008327040003278400B70A008013CBEAFF29
:10433000130C00009309000093CAFAFF13850700CD
:10434000930C07006382091013F60620630E0624FF
:10435000130D070063E6E92E13F70648630A070802
:104360000326440183250401131716003307C700F1
:104370003389B740935CF701B38CEC0093071900C5
:1043800093DC1C40B387370113860C0063F6FC00F6
:10439000938C07001386070093F60640638E062C65
:1043A0009305060013050A00EF30C033130D050016
:1043B000630205308325040113060900EF30903FA6
:1043C0008357C40093F7F7B793E707082316F40061
:1043D00033052D01B3872C412328A401232A9401FE
:1043E0002320A400938C09002324F400138D0900DA
:1043F00013060D0093050C00EF30504E0327840088
:10440000832704001389090033079741B387A70165
:104410002324E4002320F4009309000083A78B00E9
:10442000330C2C01B387274123A4FB00638A070ABE
:1044300083270400032784008356C40013850700E4
:10444000930C0700E39209F003AC040083A9440035
:10445000938484006FF09FEE930A00001305000020
:10446000130C0000930900006380090E6308050E19
:1044700093870A00138B090063F43701138B07003D
:1044800003250400832704010329840083264401B3
:1044900063F6A7003309D9006342690F6348DB1A4A
:1044A000832744028325C40113060C0013050A0068
:1044B000E780070013090500635AA006B38A2A4162
:1044C00013051000638C0A0483A78B00330C2C01A6
:1044D000B3892941B387274123A4FB00E39607F85A
:1044E000130500008320C1020324810283244102BA
:1044F000032901028329C101032A8101832A410181
:10450000032B0101832BC100032C8100832C41006C
:10451000032D0100130101036780000093050400CF
:1045200013050A00EFF00FC0E30005FA8317C4007B
:1045300093E707042316F4001305F0FF6FF09FFACA
:10454000130500006780000083A9440093870400DE
:1045500093848400E38A09FE03AC070013860900F4
:104560009305A00013050C00EF305018630E0512E0
:1045700013051500B30A85416FF09FEF93050C00FA
:1045800013060900EF3090358327040093050400DB
:1045900013050A00B38727012320F400EFF08FB83A
:1045A000E30E05F06FF09FF88326040163E2F60442
:1045B0000328440163EE09039386090063743B01F9
:1045C00093860A00B3C60603832744028325C401E9
:1045D00013060C0013050A00B3860603E7800700E4
:1045E00013090500E354A0F4B38929416FF01FE3D8
:1045F0001309070063F4E900138909001385070014
:104600001306090093050C00EF30502D032784009A
:104610008327040033072741B38727012324E400BD
:104620002320F400E31207FC9305040013050A009D
:10463000EFF04FAFE31C05EEB38929416FF01FDEA9
:10464000938C0900138D09006FF09FDA13060B009D
:1046500093050C00EF309028032784008327040083
:1046600013090B0033076741B38767012324E40074
:104670002320F4006FF09FE413050A00EF40105868
:10468000130D0500E31605D48325040113050A0064
:10469000EFF0DF888317C4001307C0002320EA006F
:1046A00093F7F7F76FF0DFE893871900938A070015
:1046B0006FF05FDC1307C0008317C4002320EA00FB
:1046C0006FF01FE71305F0FF6FF0DFE1130101FE4C
:1046D00023282101232631012324410123225101D2
:1046E00023206101232E1100232C8100232A910015
:1046F000138B0500930A052E130A0000930910007E
:104700001309F0FF83A44A0003A48A009384F4FFF2
:1047100063C604028357C4009384F4FF63FCF9006A
:104720008317E4001305040063862701E7000B00EC
:10473000336AAA0013048406E39E24FD83AA0A00B8
:10474000E3920AFC8320C1010324810183244101F7
:10475000032901018329C100832A4100032B0100A1
:1047600013050A00032A810013010102678000007B
:10477000130101FD23202103232E3101232C4101AC
:10478000232A5101232861012326710123261102C6
:104790002324810223229102930A0500938B0500B2
:1047A000130B052E130A0000930910001309F0FFE4
:1047B00083244B0003248B009384F4FF63C804021A
:1047C0008357C4009384F4FF63FEF9008317E40069
:1047D0009305040013850A0063862701E7800B0018
:1047E000336AAA0013048406E39C24FD032B0B0008
:1047F000E3100BFC8320C1020324810283244102C5
:10480000032901028329C101832A4101032B0101EC
:10481000832BC10013050A00032A81011301010340
:104820006780000093064500930700001305A5016B
:104830003788FFFF6F00C001939717002390E600B1
:10484000939707019386260093D70701630ED5023D
:1048500003D70600137617006304060093E71700DA
:104860001357170013F62700B3650701E30606FC8C
:10487000939717002390B60093970701938626001D
:1048800093D70701E316D5FC6780000093068501E6
:1048900013070000130525006F00C0011317170050
:1048A0002390F600131707019386E6FF13570701BD
:1048B0006304D50483D706001396070113560641F7
:1048C0009397170063540600136717009397070127
:1048D00093D707011376270093E51700E30006FC42
:1048E000131717002390B600131707019386E6FFEE
:1048F00013570701E310D5FC67800000130101FE88
:10490000370E0100231D0100231E01009385850140
:104910009307C10113088100130EFEFF03D70500A2
:104920009387E7FF9385E5FF630A07023307A70232
:1049300083D8270003D30700B376C701B3861601D7
:104940001357070193D80601330767003307170190
:104950002390E7002391D70013570701239FE7FE19
:10496000E39E07FB130646009306E10103D7070009
:104970009387270013062600231FE6FEE398D7FE41
:1049800013010102678000000357050083572500CB
:104990006306070037870000B3E7E7002399F500B7
:1049A00003572500B78700009387F7FF6304F702DA
:1049B00093076500938505011305850103D707005B
:1049C000938727009385E5FF2391E500E398A7FEF1
:1049D00067800000930765001305A50103D7070052
:1049E00093872700631A0702E39AA7FE138725011E
:1049F0009387050093872700239F07FEE31CF7FE9C
:104A000083D72501378700001307F7FFB3E7E700D7
:104A10002399F5006780000013870501938705003F
:104A200093872700239F07FEE31CF7FEB7C7FFFF0E
:104A30002398F500B787FFFF93C7F7FF2399F50089
:104A40006780000083574500130101FF2322910076
:104A50002326110023248100232021019304050033
:104A6000639C070C035765001304000093170701AC
:104A700093D7074163C4070A9306A5011306000AEA
:104A800063180702938764006F00800003D7070054
:104A900093872700239EE7FEE39AD7FE239C04001A
:104AA00013040401630CC40603D76400E30C07FC81
:104AB000937707F06390070413858401938524009E
:104AC0009307000013070500835607001307E7FF4D
:104AD00013968600B3E7C7002311F70093D786002B
:104AE000E314B7FE03D7640013048400937707F040
:104AF000E38807FC1309000A6F0040011304140047
:104B0000EFF0DFD8634C890003D764001317070167
:104B10001357074113850400E35207FE8320C100A9
:104B200013050400032481008324410003290100AC
:104B3000130101016780000013F707F01304000060
:104B4000631007041309F0F66F0040011304F4FF2B
:104B5000EFF05FCDE30424FD83D744001385040008
:104B6000E39607FE8320C10013050400032481009F
:104B70008324410003290100130101016780000023
:104B8000930645009305A501130700006F00800000
:104B900083D7060013D687003367C7009397870033
:104BA0002390E60013970701938626001357070109
:104BB000E390D5FE83D74400130480FF6FF09FF885
:104BC000130101FE232C8100232A9100232E1100C2
:104BD00023282101232631019384050013040500B5
:104BE00063C4050A9307F00013860500130545000A
:104BF000930684019305F00063D4970293070500A0
:104C000003D7270093872700239FE7FEE39AF6FE4A
:104C1000231C0400130606FFE3C2C5FE93F4F40050
:104C20009307700063D8970213078401930524004B
:104C300093070000835607001307E7FF13968600CB
:104C4000B3E7C7002311F70093D78600E394E5FE8E
:104C5000938484FF638A04009384F4FF13050400A3
:104C6000EFF0DFC2E39A04FE8320C1010324810137
:104C700083244101032901018329C1001305000098
:104C80001301010267800000930710FF3309B04051
:104C900063DEF5089305850193090000930645003E
:104CA0001306F0000357840193870500B3E9E90078
:104CB00003D7E7FF9387E7FF2391E700E39AD7FE47
:104CC00023120400130909FFE34E26FD130900FF18
:104CD000130710FF330999409307000063CEE408DF
:104CE0003309F9009307700063CA270563000902BE
:104CF000835784011309F9FF1305040093F7170084
:104D0000B3E9F900EFF01FB2E31409FE8320C101FB
:104D1000032481018324410103290101333530013A
:104D20008329C1001301010267800000930790FFEF
:104D30009309000093064500E3DCF5FA83478401FC
:104D40009305A401B3E9F9009307000003D7060017
:104D50009386260013568700B3E7C7001317870012
:104D6000239FF6FE9317070193D70701E390B6FE42
:104D7000130989FF6FF09FF7937709FFB307F0409E
:104D80003309F90093077000E3D227F76FF01FFB98
:104D900083572501378600001306F6FF93D7F700E7
:104DA000B307F0402390F5008356250193070501D2
:104DB00013874500B3F6C6002391D5006386C6026B
:104DC00013876500239205001305E5FF83D60700CE
:104DD0009387E7FF13072700231FD7FEE318F5FE8D
:104DE000239C050067800000035625013376D6001A
:104DF000631ED600130825019306050003D606009E
:104E000093862600631E0600E39A06FF9385A5019C
:104E100013072700231F07FEE39CE5FE67800000C1
:104E200013876500239205001305C5FF83D607008D
:104E30009387E7FF13072700231FD7FEE398A7FEFA
:104E40006780000083572501130101FB232481049F
:104E500093C7F7FF23261104139717011384050046
:104E6000631E0700930625019307050003D707007B
:104E700093872700631C0708E39AD7FE8357240112
:104E800093C7F7FF13971701630007069305810087
:104E9000EFF01FF09305410213050400EFF05FEF00
:104EA0008355810003554102630CB5069307A100A9
:104EB000130761021306010283D6070093872700B8
:104EC0006398060A83560700130727006392060AB1
:104ED000E314F6FE130500008320C10403248104BB
:104EE00013010105678000009307040003D7070042
:104EF0009306240193872700631A0700E388D7F8F5
:104F000003D7070093872700E30A07FE8320C10425
:104F1000032481041305E0FF1301010567800000ED
:104F20000356A10083566102133515001307A10033
:104F300093076102131515001305F5FF9305C103CF
:104F40009387270013072700631ED600E384B7F872
:104F50000356070083D6070013072700938727000F
:104F6000E306D6FEE3EAC6F63305A0406FF0DFF6AF
:104F700013051000E38205F61305F0FF6FF0DFF56F
:104F8000130101FD2324810223202103232E31015B
:104F9000232C4101232A5101232671011389070083
:104FA000938B0600232611022322910223286101FC
:104FB0001304050093890500130A0600930A0700ED
:104FC000EFF05FA893070009B38BAB4063D4A7143D
:104FD000B78700009387E7FF63D27727638C0A22A5
:104FE000832A4900832609001307A901930749036F
:104FF0006380DA2A13072700231F07FEE39CE7FEDE
:10500000930780036382FA3263D85713930700042F
:105010006388FA2A930710076396FA3237870000ED
:105020001307F7FFB7450000130B40019304A000DE
:10503000B78700001306A00093068600939616001B
:10504000231AE90023249900231BB900231CF9002B
:105050002326C9003307D9002315F700232059015F
:10506000330B6401635E702383570B0003574901C0
:105070009306F00833F6E70063CC56039306B000BE
:1050800063C89602139714003307E4009306840163
:105090008357270063840700136616002311070057
:1050A00013072700E396E6FE83570B0003574901D9
:1050B0001347F7FFB3F7E7002310FB00835769019D
:1050C00033F7C7006314070C63527013835744000F
:1050D00063960722B7870000231C04009387E7FF2D
:1050E00063CC7713231174018320C102032481024E
:1050F00083244102032901028329C101032A81017A
:10510000832A4101032B0101832BC10013010103F9
:105110006780000063D20B16930700F763DCFB1275
:10512000930724001304A40193872700239F07FEFD
:10513000E39C87FE6FF05FFB930780016382FA1A9E
:10514000930750036390FA20B71700001307F07F0E
:1051500093050040130BC000930460009387078001
:10516000130660006FF05FED0357490103560B0013
:105170009347F7FFB377F6002310FB0083576901CD
:105180003376E60033F7C700630A07066392C70267
:10519000639809188327C90003578901939717005B
:1051A000B307F40083D70700B3F7E700E38E07F0F7
:1051B00013052903130684011309C901930700008D
:1051C00003570500035806001306E6FF1305E5FF25
:1051D000330707013307F700935707012311E60050
:1051E00093F71700E31EA9FCE34270EF9307000951
:1051F0006386FA0013050400EFF04FE9835744007B
:10520000639E070E231C0400E3DE0BEC2311040055
:105210006FF09FED231C0400B787FFFF93C7F7FFD4
:105220002311F40093074400130484012390070022
:1052300093872700E39C87FE6FF01FEB9307240002
:105240001304A40193872700239F07FEE31CF4FEA9
:105250006FF09FE993850B0013050400EFF05F9654
:105260006304050093091000E39C0AD6231C040084
:10527000231104006FF05FE7E38E0AE4832A4900FC
:10528000832609001307A90193074903E394DAD69B
:1052900083248900139B1400330B6401E34670DD03
:1052A00093070009E382FAEC835784011305040095
:1052B00093F71700B3E9F900EFF0CFD66FF0DFDA1C
:1052C000370701001307F7FFB7850000130BE00055
:1052D0009304700093071000130660006FF0DFD591
:1052E0001307F00F93050008130B80009304400090
:1052F00093070010130640006FF01FD4130504003D
:10530000EFF04FD2B7870000938B1B00231C0400E3
:105310009387E7FFE3C277F1E3CA0BEE6FF09FDC00
:10532000E3080AE86FF05FDA1307F00F930500084F
:10533000130BC00093046000930700101306600075
:105340006FF09FCF370701001307F7FFB785000005
:10535000130B80019304C000930710001306B000E4
:105360006FF09FCD130101FD23202103232E310176
:105370001389050083592500232611022324810265
:1053800023229102232C410193040600232671015C
:10539000232A510123286101232481012322910121
:1053A0002320A101930B0500EFF0CFE9035429005E
:1053B0009307050013050900B389F940138A4403D4
:1053C000EFF04FE83304A4401387E40493070A0086
:1053D00093872700239F07FEE39CE7FE6348340979
:1053E000138B4B00930A4900138CAB01130D29005A
:1053F00013870A0093070B0003D6070083560700A4
:105400009387270013072700631AD60AE39687FFBE
:1054100013868B0113078901930600008357070049
:10542000835506001307E7FFB387D740B387B7401C
:1054300093D607012311F70093F616001306E6FF33
:10544000E31EEDFC930C100013050A00EFF00FC4EF
:1054500083D7C4041304F4FF13050900B3E7FC0069
:105460002396F404EFF08FC2E35434F9930604005A
:10547000032481028320C1028329C101032A8101FF
:10548000832A4101032B0101832BC100032C8100DE
:10549000832C4100032D01009387040013050900AC
:1054A00083244102032901021307000013060000B0
:1054B00093050000130101036FF09FAC930C0000F3
:1054C000E3E4C6F86FF0DFF4130101FD2324810249
:1054D0002326110213840500930741001307E101FD
:1054E00093872700239F07FEE39CE7FE0356E50012
:1054F000B78700009387F7FF1357F6003307E040A4
:105500002312E1003376F6006300F6069307E50008
:105510002313C1001307A10083D6E7FF9387E7FF9A
:1055200013072700231FD7FEE318F5FE63120602B8
:10553000231401009305040013054100EFF0CFC4CC
:105540008320C1020324810213010103678000004C
:10555000930710009305F0FF130541002314F10099
:10556000EFF00FE66FF01FFD930705009306E500CF
:1055700003D7070093872700631C0706E39AF6FE0C
:10558000130744019307040093872700239F07FE16
:10559000E39CE7FE13072401930704009387270089
:1055A000239F07FEE31CF7FE83572401B786000004
:1055B0009386F6FFB3E7D7009397070193D70701C8
:1055C0002319F4008316E500E3DC06F693060400D5
:1055D00003D6060093862600E31406F6E31AD7FEE8
:1055E0003787FFFFB3C7E7002319F4006FF05FF5BB
:1055F000130704019307040093872700239F07FEE6
:10560000E39CE7FEB7C7FFFF2318F400B787FFFF4F
:1056100093C7F7FF2319F4006FF09FF2835725011A
:10562000130101F52324810A93C7F7FF2322910A6E
:105630002320210B232E31092326110A232C410973
:10564000232A51092328610923267109232481096A
:10565000232291092320A109232EB10713971701B3
:1056600093040500938905001304060013890600BE
:10567000631E0700930625019307050003D7070063
:10568000938727006318072EE39AD7FE83D7290153
:1056900093C7F7FF13971701631E0700938629012D
:1056A0009387090003D70700938727006312072E0B
:1056B000E39AD7FE374A018093050A5913850400FF
:1056C000EFF04FF86304052E03D6240103D7290118
:1056D000B78700009387F7FF3375F600B375F700BF
:1056E0006316F50A138824019387040083D6070004
:1056F0009387270063980608E39A07FFB78700009F
:105700009387F7FF6390F52C93862901938709000F
:1057100083D507009387270063940548E39AD7FE53
:10572000130704019307040093872700239F07FEB4
:10573000E39CE7FEB7C7FFFF2318F400B787FFFF1E
:1057400093C7F7FF2319F4008320C10A0324810AB9
:105750008324410A0329010A8329C109032A8109F3
:10576000832A4109032B0109832BC108032C8108DB
:10577000832C4108032D0108832DC1071301010B60
:1057800067800000B78700009387F7FF6386F524E2
:10579000138504009305C101EFF08FDF93058103AA
:1057A00013850900EFF0CFDE835AA1038354E10192
:1057B000638C0A2A232651011387040023249100B5
:1057C000930701029306410363120702638AD738E5
:1057D00003D7070093872700E30A07FE1305C101DB
:1057E000EFF04FA6B387A4402324F10003278103E1
:1057F000930A890393870A00232AE9029304E904A0
:1058000093872700239F07FEE39CF4FE1305810383
:10581000EFF04F81035B2102B7090100130C010572
:10582000131A0B01330A6A41930CA1039389F9FF00
:10583000130DE106930D61058357C1030357E1037F
:10584000938B090093970701B387E7006368FA0019
:10585000B3D76703939B070193DB0B011306410545
:105860009305C10113850B00EFF04F891307C103A6
:105870009307810503D60700835607009387270007
:1058800013072700631AD620E396A7FF93070000AB
:105890009306C10613060C000357060083D50600C5
:1058A0001306E6FF3307F7403307B7409357070166
:1058B0002311E60093F717009386E6FFE31E96FD9B
:1058C00023907A019307C10303D72700938727000A
:1058D000239FE7FEE39A87FF23180104938A2A0097
:1058E000E39C54F5130700009307C1031306210539
:1058F00083D60700938727003367D700E39AC7FE54
:10590000B335E0009307810313074903835607006B
:105910009387270013072700239FD7FEE318F6FE7F
:105920008327C10003278100B74600009386F6FF56
:10593000B38AE740130581039307090013070004A6
:10594000B386DA0013060000EFF08FE303578103FC
:105950008357C1019305040013058103B387E74012
:10596000B337F000B307F040231CF102EFF0CF8112
:105970006FF09FDD1387440183D7040093842400D4
:1059800013042400231FF4FEE398E4FE6FF0DFDB32
:105990001307440183D709001304240093892900C5
:1059A000231FF4FEE318E4FE6FF01FDA93050A5993
:1059B00013850900EFF00FC9E31805D06FF05FD62B
:1059C000E30808DC9307440113042400231F04FEAA
:1059D000E31CF4FE6FF05FD71308000093862901E3
:1059E0009387090083D5070093872700E39A05FC76
:1059F000E39AD7FEB78700009387F7FF630AF504A1
:105A00001356F60083D7090093892900639207187B
:105A1000E39AD9FE9357F700B3C7C7009397F700EF
:105A20002319F40013072401930704009387270028
:105A3000239F07FEE39CE7FE83572401378700007E
:105A40001307F7FFB3E7E7002319F4006FF0DFCF88
:105A50009385240183D7040093842400639E071256
:105A6000E39AB4FE6FF0DFF99307C103130C01054D
:105A7000630EFC0C03D7070093872700E30A07FE99
:105A800013058103EFE01FFCB307A0400357E101BA
:105A90002326F1006FF09FD2E3FAC6DE9387FBFF67
:105AA0009398070193D80801930600001306410359
:105AB0001307C10683570700835506001307E7FF46
:105AC000B387D740B387B74093D607012311F700B8
:105AD00093F616001306E6FFE31EB7FD1307C10396
